:080000000004040000000000F0
:100800006F0424000EFF2C000E0188000000000081
:10081000000020000000E000020032000001200083
:100820002002880014000700F60007000000E00026
:1008300003003A00E02221000100200002003700FE
:100840000000200001002000810F70000100320034
:100850000F000700000020000000E000020032004E
:100860000000020000000000EE1002000000000086
:100870000040DA000000FE00200020000000E00040
:1008800002003200100020009001880000000600E5
:10089000A1028800800478000000EB001F003700F0
:1008A000E284440054A0B4009905BA00E2844400F4
:1008B00054A0B4009906BA00E284440054A0B400E5
:1008C0000006EB00476FDE00FD07B200AE018800B6
:1008D000636CE10003003A000AD801000000EB005D
:1008E0000E003700606CE10008003A00004DEB009C
:1008F0000A05E800020039003420EC000AF0A000EC
:100900008B05E900F9FF3E00040037006168E10053
:10091000010032000086EB000B00070019C7BA0087
:100920000E04E0001905BA0003003A000A00E000D6
:10093000DBFF3A0000000600FE07B200AE028800AE
:100940008A047800F5FF37000CD0A300E20F4D00B9
:100950001C00390089027800354DBA000A05E8000C
:10096000020039003420EC000AF0A0008B05E900F9
:100970000F003200254DBA000A05E80002003900D8
:100980003420EC000AF0A0008B05E90008003200DA
:100990000C00E0000600320015CDBA000A05E800A0
:1009A000020039003420EC000AF0A0008B05E900B9
:1009B0008984E80054A0B4000B00E000E2FF3A0094
:1009C000000006009902BA00055D78008B05E90079
:1009D000F7FF3200C82ADE00055D78008B05E900CC
:1009E000F3FF32000C00E000F1FF320019DDBA0025
:1009F000EEFF370050140400000000003600F8003D
:100A0000809FBE00829FBE00849FBE00869FBE0066
:100A10000000FA00C028A9000000EB000C1502003D
:100A2000000000000080FA004F03BE004F02BE002D
:100A30004F01BE004F00BE003600F9000040060026
:100A40003600F800809FBE00829FBE00849FBE00DB
:100A5000869FBE000000FA0016150200000000008C
:100A6000C048A900100020000C1502000000000082
:100A70000080FA004F03BE004F02BE004F01BE00CF
:100A80004F00BE003600F900004006003600F800B6
:100A9000809FBE00829FBE00849FBE00869FBE00D6
:100AA0000000FA00C068A900200020000C15020018
:100AB000000000000080FA004F03BE004F02BE009D
:100AC0004F01BE004F00BE003600F9000040060096
:100AD0003600F800809FBE00829FBE00849FBE004B
:100AE000869FBE000000FA00C088A90030002000E8
:100AF0000C150200000000000080FA004F03BE0049
:100B00004F02BE004F01BE004F00BE003600F9008C
:100B1000004006003600F800809FBE00829FBE00A5
:100B2000849FBE00869FBE000000FA00C0A8A900F6
:100B3000400020000C150200000000000080FA00B8
:100B40004F03BE004F02BE004F01BE004F00BE006B
:100B50003600F900004006003600F800809FBE0015
:100B6000829FBE00849FBE00869FBE000000FA00E8
:100B7000C608A900700020000C150200000000004B
:100B80000080FA004F03BE004F02BE004F01BE00BE
:100B90004F00BE003600F900004006003600F800A5
:100BA000809FBE00829FBE00849FBE00869FBE00C5
:100BB0000000FA0021468000000220000080600052
:100BC0000000E00004003200C4A8A900900020004A
:100BD0000C1502000000000020468000700060003C
:100BE0000000E00004003200C488A900A00020003A
:100BF0000C15020000000000FFFF37000040DA0083
:100C00000000FE00000005002600FA0020179800F2
:100C10000000EB00100798000040EB0040479800F0
:100C20002E1090009040780000C8B30080C04000B3
:100C30002E109000014878000040EB00004F780033
:100C40000A0037001E80FB000000E8009E80FB00C9
:100C50002E119000E4804000810041009140780016
:100C600064004000017778001E4FE8009E80FB0082
:100C70002E10900010009000808F5000F1FF39007E
:100C80002E109000100090008000E8002E109000C0
:100C9000110098002E109000100190002E1090006E
:100CA00064004000E4004700600C02000000000007
:100CB0002E1090005E0B0200000000001E0090004D
:100CC0000080FA00000006004A00FA004027980061
:100CD0000000EB00000F78004E209000904078005C
:100CE00000C8B30080C040004E209000014878004A
:100CF0004E209000404090000080FB00E10F50002B
:100D000021003200E20F50002D0032000000E00010
:100D100033003A008E110200000000001007980016
:100D2000210798001E009000AE0090004808DE00E9
:100D300000407800104F98001E009000AE00900018
:100D40004008DE0000407800204F98001E00900010
:100D5000AE0090004809DD004800DE000000710090
:100D6000C808DE0000407800304F98001E00900058
:100D700000407800404F98004E2090004100200035
:100D800011009800190037001C120200000000003A
:100D9000300798003E0090004800DE0000407800D8
:100DA000104F98003E00900000407800204F9800BF
:100DB0004E20900021002000110098000B00370009
:100DC000680047000000E800C811020000000000B1
:100DD0004E2090000104200011009800030037000D
:100DE00020002000000F7800000000001E007800A6
:100DF0000000E00010003A004E209000100090002B
:100E00008000E8004E209000110098004E209000D5
:100E1000100190004E20900064004000E800470060
:100E2000600C0200000000001E0078000040780006
:100E3000004F9800070037004E209000110020005E
:100E4000110098001E007800804078004E2090002D
:100E5000414098004E2090005E0B02000000000010
:100E60001E0078000080FA00000006000A00FA0068
:100E7000400798000000EB00000F78006000B80009
:100E8000100798002107980010C0B3006047980031
:100E90004E0090009040780000C8B30080C0400031
:100EA0004E009000014878004E0090001100200094
:100EB0001100980050052000A10A20008A0C0200B1
:100EC00000000000130037001E009000AE009000EC
:100ED00070014000E08148004A18DD00C610DE00C5
:100EE000810070004A10DD00E80C020000000000E4
:100EF000EE40900000C06000604798001E00900027
:100F0000AE00900061004000E080480010079800AB
:100F1000210798001E019000AE019000F00820000B
:100F200001002000800F5100818F590003003E0016
:100F30006E409000E14F5000E3FF32006E409000A1
:100F4000E14F50000A003A001E019000AE019000EF
:100F50000009200001002000800F5100818F5900FE
:100F600003003A0010C0B30004F0B70002003700DD
:100F700070002000000F7800940C020000000000B8
:100F80001E007800804078004E009000414098009C
:100F90004E0090005E0B0200000000001E00780072
:100FA0000080FA00000006000400FA001007980014
:100FB0000000EB00000F7800E12921001E009000E6
:100FC0001B000700000F78001E0078000000E00002
:100FD00005003A0004D0BF000004E00002003A001F
:100FE00020002000000F78001E0078000080FA002A
:100FF000000006000200FA00000F78000000EB007D
:101000000080FA00000006000200FA00000F7800DD
:101010000000EB000080FA00000006000200FA0069
:10102000000F78000000EB000080FA0000000600CE
:101030001200FA0070079800010F98000000EB0002
:10104000000F78006000B800200798003107980072
:101050006000B80040079800510798000000EB00BE
:10106000600798007E009000704090000080FB00B8
:101070008000EB000E0990000089BE000E08900071
:1010800010027800900290007E0090006040900076
:101090000080FB004800DD006101B80000F02F0077
:1010A000010020000203780003017800800178002D
:1010B0000100780003036300000061008000EB0082
:1010C000C000DD00000020000001BE006130B8005B
:1010D0000001710081817100020072008380720042
:1010E0000E0990000089BE000E08900010027800E2
:1010F000900290007E009000504090000080FB0025
:101100004000DD006101B90000002000F10F200067
:101110000203780003017800800178000100780064
:1011200003036300000061008000EB00C000DD00ED
:10113000000020000001BE006130B8000001710015
:101140008181710002007200838072000E0990009C
:101150000089BE000E0890009000900010007800FA
:101160008100D1000080D3000E0990000089BE00EC
:101170007E0090001000900066005000100798005C
:101180000E0890009E009000210098007E009000C4
:10119000100090000080E900FE0090006400400014
:1011A00000804000104078008080FB000E08900016
:1011B000318099000E089000B08091007E00900070
:1011C00010009000630050007E0190006400400019
:1011D00000004100104078000080FB004800DD0066
:1011E000810070000E089000318099000E08900078
:1011F00010017800900190001000200001002000F4
:101200000202780003017800800178000100780074
:1012100003026200000061008000EB00C000DD00FE
:10122000000020000001BE006120B8000001710034
:1012300081817100E00F5100E08F59007B003A007E
:101240000E0890001001780090019000F03F2400FB
:1012500001002000800F5100818F590008003600E6
:101260000E0890001001780090019000F03F2500DA
:1012700051002000800F5100818F59000600360078
:101280000E0890009000900010007800E00F5000D1
:10129000E08F580065003A000E08900010017800B9
:1012A00090019000F0072000010020000202780069
:1012B00003017800800178000100780003026200D9
:1012C000000061008000EB00C000DD000000200095
:1012D0000001BE006120B800000171008181710031
:1012E00042079800530798000E08900010017800FC
:1012F000900190004E009000DE0090000000510030
:101300008180590020079800310798004E00900016
:10131000DE0090008100D1000080D30040079800DB
:10132000510798000E089000200090006101B8005D
:101330004E009000DE0090000201400083814800D2
:101340000010200001002000800F5100818F590003
:1013500033003E000000EB00100798000900370042
:101360008E0890001E009000008040006600400043
:1013700080C0EB00014878001E0090000000E800EB
:10138000100798001E0090006101B8004E00900008
:10139000DE009000800F5100818F5900F0FF39006E
:1013A0000000EB0010079800130037001E009000AB
:1013B0006101B8004E009000DE0090000200400085
:1013C000838048001E01900063014100FE019000EF
:1013D0006401410002814100124178008E099000B1
:1013E0000080410066004000024878001E00900026
:1013F0000000E800100798000E089000A000900080
:101400001E009000808F5000E8FF3E000E08900004
:101410002E019000BE0190000288BE00050037003A
:1014200020002000000F780002003700800020001C
:10143000000F78001E0078000000E00011003A0064
:10144000100221007E140200000000000E0890002F
:10145000A00090007E0090006700400094140200FD
:1014600000000000600798000E089000B080910016
:101470006E009000808F500002003200900020002B
:10148000000F78001E0078000080FA0000000600BF
:101490000000FA000630EF000080FA0000000600AD
:1014A0000400FA00A0292100104078000080FB0011
:1014B0000000D100004078000080FB006100600067
:1014C000004078000004E000120032004E130200D9
:1014D00000000000E1948000810F50000D003600F4
:1014E000A0292100104078000080FB00610060000E
:1014F0000000E00007003A000630EF00A0292100BC
:1015000010407800804078000114A100A02921003B
:101510000148780010118000610060000000E000C8
:101520006400320010118000620060000000E000E2
:10153000010032002222A90030118000004F780003
:10154000308080000000E00003003200E10F500016
:10155000230032005700370050CAB3009E40780085
:1015600080CF50004C003A00A029210010407800A4
:101570000080FB00610060000000E00048003A00CD
:10158000A0292100104078000080FB000000D1005D
:10159000004078000080FB00610060000000E00077
:1015A00041003A00A02921001040780080407800D6
:1015B0000114A000A0292100014878000000EB00E0
:1015C000708C88004E13020000000000803EB000C6
:1015D000E09488001000200030808800350037003B
:1015E000718C800000192100008040001E487800A6
:1015F000708C80000000E800708C88004108210099
:10160000E0182100D80D020000000000100798002B
:101610001E0090000000E0000E003A00A02921000A
:1016200010407800804078000114A100A02921001A
:1016300001487800A02921001040780080407800FF
:101640000104A000A0292100014878000630EF0025
:10165000180037001E009000E10F50001400360003
:10166000A029210010407800804078000114A100DA
:10167000A029210001487800A0292100104078000D
:10168000804078000104A100A029210001487800D1
:101690000630EF00070037000000000005003700AB
:1016A00000000000030037000000000001003700C8
:1016B000000000000080FA00000006006C00FA0044
:1016C000503798000040EB00004F78005E309000EB
:1016D000100090000000E80020079800A0C5B300AB
:1016E000604798005E309000104078007047980086
:1016F0002E0090004800DE0000407800004F980067
:101700002E00900000407800104F9800FE4090009E
:101710000E48900080C040001E48900000CF40005E
:101720000000EB0010079800120037001E00900028
:10173000640040005E3190009E009000E480400014
:1017400081004100914078006600400001777800F8
:10175000DE3090001E0090006400400000804000D9
:10176000104078001E4F40001E0090000000E8006E
:10177000100798005E309000900090001E009000CE
:10178000808F5000E9FF3E001ECFEA001E0090004F
:1017900064004000660040009E40780001777800B9
:1017A0000000EB0010079800080037001E009000B2
:1017B000660040006E4078006810020000000000E3
:1017C0001E0090000000E800100798002E00900016
:1017D000E40040001E009000808F5000F3FF3E00A8
:1017E0000080FA00000006000600FA0020079800BA
:1017F00010002000000F78000000EB001007980098
:10180000A0292100104078000080FB0061006000EA
:10181000004078000004E00024003200A0292100EC
:1018200010407800804078000104A100A029210028
:10183000014878000000EB00000F7800400821000C
:10184000904078002E00900001487800318480009C
:101850002E009000110098000000EB001007980087
:101860000D0037001E009000E400400040082100F9
:1018700000804000904078002E0190001E009000F3
:101880000000410064004000014878001E00900004
:101890000000E80010079800318480001E009000CE
:1018A000808F5000EFFF3E00020037001000200044
:1018B000000F78001E0078000080FA00000006008B
:1018C0000800FA00100798002107980032079800D6
:1018D0000000EB00000F7800070037001E009000AA
:1018E0001E004000AE0090009E80400091407800B5
:1018F000014878001E0FE8003E0090009E0078002E
:10190000808F5000F5FF39000080FA0000000600CB
:101910000000FE00C20521000019780001097800CE
:10192000000006000000FE000000EB008000EB005D
:10193000F8FF07002E27EF00000006000000FE0061
:101940000000FE00801F7800811F7800821F780051
:10195000C105210012468000C3E8A90031007800CB
:1019600070398800110078007039880029E7A800D4
:10197000000000000000000029E7AF00FEFF370074
:1019800002F0A700C3E8A8004F017800CF0078005C
:101990004F007800000006000000FE00A202800058
:1019A000A10288009080BA001000BA00A20288004C
:1019B000000006000000FE00A2028000A1028800D4
:1019C0001000BA00A2028800000006000000FE001D
:1019D000F23F20000001610008003A0032002400BC
:1019E000423988005039880061398800A20C020011
:1019F000000000001000200029A7AF000000200018
:101A0000000006000000FE0029E7AF00FEFF3700DF
:101A10000000A700130037000010A70011003700D6
:101A2000613988005039880010002400403988004E
:101A3000A0028000A10F2000A10288000100200068
:101A40008208BB008398BB008408BB008598BB005C
:101A5000A20C020000000000A0028800100020007C
:101A600029A7AF0000002000000006000000FE00D3
:101A700029E7AF00FEFF37000000A7001400370081
:101A80000010A70012003700613988005039880023
:101A9000A10280001000240040398800A00F20001F
:101AA000A0028800000020000208BB00F20F200006
:101AB0000298BB000308BB000298BB00A20C020006
:101AC00000000000A10288001000200029A7AF003C
:101AD00000002000000006000000FE0029E7AF0023
:101AE000FEFF3700F30720008081610009003A0003
:101AF000503988006139880020002400403988006E
:101B000082398800A20C02000000000010002000B2
:101B100029A7AF0000002000000006000000FE0022
:101B200029E7AF00FEFF3700F30720008081610046
:101B300015003A00503988006139880010002400EF
:101B400040398800A00F2000A0028800000020007B
:101B500001042000F40F20003208BB000498BB00F1
:101B60003208BB000490BB00A20C02000000000081
:101B70002AA7EC002AA7EC002100B100F6FF3A00EA
:101B80001000200029A7AF00000020000000060080
:101B9000F23F2000000061000000060002C02F009C
:101BA00000006100F2FF2F008100610000000600CC
:101BB0000C00FA0040079800510798000000EB0065
:101BC000000F78000000EB00100798000000EB0009
:101BD000200798000040EB00604798004E009000FE
:101BE00010007800E20F500002003E0010002000BC
:101BF000200798002E0090000000E0004C003A0002
:101C00004E009000A04090005E00900001487800D7
:101C10004E009000304090000080FB00C800DD00C6
:101C20005E009000110098005E009000900090000F
:101C30004E009000404090000080FB00810070004A
:101C40005E009000110098005E00900090009000EF
:101C500060102000808F50000300360040002000FC
:101C600020079800320037000000EB00000F7800DA
:101C7000010037001E0FE8001E007800E70F50003B
:101C800009003E005E009000904078001E00780041
:101C9000E601B900C00021000000410010407800BA
:101CA00080CF5000F3FF3A005E0090009040780033
:101CB0001E007800E601B900C000210000004100CC
:101CC0001040780080CF500017003A005E0090006E
:101CD000900090001E007800E600B9000081E80046
:101CE000C00021000000410010007800808F5000EB
:101CF0000A0039005E009000900090001E007800FD
:101D0000E600B90064014000C0002100000041006D
:101D100010007800808F5000050036004000200041
:101D2000200798000200370050002000200798008C
:101D30002E0090000000E0003F003A004E009000AE
:101D4000900078005E00900010009000630040005A
:101D5000808F50002C003A000000EB001007980024
:101D60000000EB00000F7800170037001E0078001D
:101D7000E20F50000C003600CE0090001E80E800FC
:101D800000804000904078005E0190001E009000AE
:101D90000000410064004000014878001E009000EF
:101DA0000000E80010079800CE0090001E80E800B8
:101DB0000080400010407800EE40900000C04000DD
:101DC000604798001E0FE8005E0090001000900031
:101DD000630040009E0F5000E4FF3E006E40900004
:101DE000E14F400002003200300020002007980040
:101DF0005E009000100090008000E9005E009000FE
:101E0000110098000C0037004E0090009000780000
:101E10005E0090001000900063004000808F500032
:101E20000300360020002000200798000200370041
:101E300010002000200798002E0090000080FA007B
:101E4000000006000000FA00003A80000080FA005E
:101E5000000006000200FA00FAFF0700000F7800F9
:101E60001E007800240007000004E0000200320099
:101E700000002800710007001E0078002A000700FB
:101E80000004E00002003200000024006B000700A4
:101E90001E007800320007000004E000020032005B
:101EA00000202000650007001E0078003A000700AF
:101EB0000004E00002003200000820005F0007007C
:101EC0001E007800420007000004E000020032001B
:101ED00000042000590007001E0078004A00070097
:101EE0000004E0000200320000012000530007005F
:101EF0000080FA00000006000400FA0010079800B5
:101F00000040EB00004F78001E0090000000E00051
:101F100002003D0010C0B300004F78001E40780062
:101F20000080FA00000006000400FA001007980084
:101F30000040EB00004F78009E009000000024005D
:101F4000008060000000E0000200320010C0B3001A
:101F5000004F78001E4078000080FA000000060064
:101F60000400FA00100798000040EB00004F7800D2
:101F70009E00900000202000008060000000E00033
:101F80000200320010C0B300004F78001E407800FD
:101F90000080FA00000006000400FA001007980014
:101FA0000040EB00004F78009E00900000082000E9
:101FB000008060000000E0000200320010C0B300AA
:101FC000004F78001E4078000080FA0000000600F4
:101FD0000400FA00100798000040EB00004F780062
:101FE0009E00900000042000008060000000E000DF
:101FF0000200320010C0B300004F78001E4078008D
:102000000080FA00000006000400FA0010079800A3
:102010000040EB00004F78001E0090007000600050
:102020000000E0000200320010C0B300004F780052
:102030001E4078000080FA00000006000200FA004E
:10204000000F78009E80EA00003A80000080600067
:10205000003A88000080FA00000006000000FA0044
:102060004027EF000080FA00000006000000FA00A0
:1020700080002000001188002222EF004004200090
:102080004011880021E2A8002342A8000080FA0045
:10209000000006000000FA0000000000101180009F
:1020A000610060000000E000FCFF320010118000C1
:1020B000620060000000E000010032002222A9005E
:1020C00030118000004078000080FA000000060017
:1020D0000200FA00004F780000000000111180009B
:1020E00000202000008060000000E000FBFF3A00BC
:1020F0001E80FB00201188000080FA00000006000E
:102100000000FA001011800000407800614060007B
:102110000080FB0000F0A7000000EA000000EA00D9
:102120004F00DE00004078000080FA00000006004A
:102130000000FA00111180000020200000806000E3
:102140000000E00007003A0011118000004020006C
:10215000008060000000E00002003200100020005B
:10216000010037000000EB00004078000080FA001A
:10217000000006000000FA00101180004800DE0098
:10218000614060000080FB0000F0A7000000EA0052
:102190000000EA004F00DE00004078000080FA00F6
:1021A000000006000000FA00101180000080FA0014
:1021B000000006000000FA0021E2A8002342A80067
:1021C0000080FA00000006000000FA0021E2A900E9
:1021D0002342A9000080FA00000006000600FA0071
:1021E0008E11020000000000008FBE0002848000FB
:1021F00013848000D0EE2F00E10D2C00800F5100E1
:10220000818F590009003200403D2C00211B2A001B
:102210001E0178009E019000800F5100818F5900AF
:1022200002003A000044040000000000E81402002C
:1022300000000000054EA800480A0200000000004F
:10224000261302000000000001003700000000001B
:10225000E012020000000000500A0200000000002E
:1022600060422100F40B0200000000000000E000CA
:10227000F6FF3A0060422100104078000080FB0029
:10228000E50F50001F003200E50F500007003C0032
:10229000E30F500011003200E30F500014003C0027
:1022A000E20F5000080032001A003700EA0F500019
:1022B00016003200EB0F500015003200E60F500000
:1022C00011003200130037006042210004060200B2
:1022D00000000000200798000F0037006042210036
:1022E0006406020000000000200798000A00370082
:1022F000604221003607020000000000200798001D
:1023000005003700040037000300370002003700E3
:102310000100370000000000CDFF37000600FA0082
:102320000000240001002000DC0C0200000000007E
:10233000000F78001E0078008000EB001007980066
:10234000210798002000240001002000DC0C02007E
:1023500000000000000F78001E0078008000EB00F5
:10236000C000DD00000020001E019000AE019000C2
:10237000000071008180710010079800210798000B
:102380001E009000AE0090000080FA0000000600E1
:102390000600FA00200798000040EB001047980064
:1023A0000040EB00004F78001E0037009E80FB00CD
:1023B000000422000080400000004000CF80DE00CA
:1023C000DC0C020000000000100798001E40900086
:1023D0000080FB00AE009000008040009E00900056
:1023E00081407800014878001E4090000040E800DD
:1023F000104798001E4090000080FB00AE00900047
:10240000008040009E009000C808DE0081407800F7
:10241000014878001E4090000040E80010479800F6
:102420001E4FE8001E407800FF4F5000DFFF3600CF
:102430000080FA00000006000200FA00000C2400F0
:1024400001002000DC0C020000000000000F7800FA
:102450001E0078000080FA00000006009E120000B6
:10246000880100008000000004100000020000004D
:1024700080000000261400000A0100008000000017
:10248000004000004600000082000000DDCCBB00E0
:10249000AA0102004365630069206500737420008F
:1024A000756E200074657300740000000000000069
:1024B000000000000000000000000000000000001C
:1024C000000000000000000000000000000000000C
:1024D00000000000000000000000000000000000FC
:1024E0000000000000000000000000008410000058
:1024F0001A02000080000000061000000200000028
:10250000800000000C10000030000000820000007D
:102510000100010000010000020002000041000073
:10252000030002000002000004000100000100009E
:102530000500070000060100060001000001000080
:102540000A000200000200000B000200000200006E
:102550005C1000000400000082000000FFFFFF008C
:10256000FF0000003C100000200000008000000080
:10257000081000000200000082000000FFFF0000C1
:102580000010000004000000800000000A1000009D
:102590000200000080000000000000000000FA00BF
:1025A0000021EF00F0F92000100888000001280049
:1025B000200888000070EF000080FA00000006008C
:1025C0000000FA0000408000680060000000E000A9
:1025D00006003200108080000000E80010808800B3
:1025E00010C0B30000F0B7000068A9000080FA0036
:1025F000000006000200FA00000F78009E0078003C
:10260000110888000070EF000080FA00000006004A
:102610000000FA00100880000080FA0000000600A8
:102620000200FA00000F78009E0078000108880080
:102630000070EF000080FA00000006000000FA00C1
:10264000000880000080FA00000006000000FA0088
:102650000070EF0005E1A8000080FA00000006000D
:102660000000FA0005E1A9000080FA000000060061
:102670000200FA000100210091407800014F78002B
:102680001E4078000004E000010032000070EF00FE
:102690001E4078000080FA00000006000000FA00EA
:1026A000108080000080FA00000006000000FA00A0
:1026B0000230EF000080FA00000006000000FA007F
:1026C000042EEF0000102000A0708800242EEF00E0
:1026D0007038200000708800F0EF2F0080708800B4
:1026E000F03B2000007188000C2EEF001C2EEF0044
:1026F0002C2EEF000A2EEF001A2EEF002A2EEF00EC
:10270000062EEF00162EEF00262EEF00A020200050
:102710007070880030202000F0708800F0032000E6
:1027200070718800113A8000F00B20000081600079
:102730006004200071052000237420008049780087
:1027400081497800824978000134800000FC2F0024
:1027500080806000100320000100700000348800B9
:102760003134800000FC2F00008060000000A000D9
:10277000303488002136800000F82F00808060000F
:10278000700220000100700020368800103A80009E
:10279000000178000260A0006004200071052000A4
:1027A00023742000804978008149780082497800AC
:1027B0000080FA00000006000000FA002004230058
:1027C000203A88004827EF0000602900703A88000E
:1027D000E0032000303A88006027EF006227EF0016
:1027E0006427EF006627EF006A27EF006C27EF00F1
:1027F0003200200080072000A1092000337420004F
:1028000080497800814978008249780012002000D0
:1028100060042000710520002374200080497800A6
:10282000814978008249780000000000103A800059
:10283000610060000000E000FCFF3A0000000000C2
:10284000113A800000022000008060000000E000DB
:10285000FBFF32000080FA00000006000000FA00D2
:10286000400E280000198800404020001019880000
:10287000F0412100201988002823EF002E23EF00CB
:10288000A0002000801988003223EF002623EF00EB
:1028900000452100050007000080FA000000060046
:1028A0000000FA000080FA00000006000200FA00B2
:1028B000000F78001E007800508088000080FA0029
:1028C000000006000000FA00014080000000220025
:1028D000008060000000E0000600320050808000B0
:1028E0000000E00002003200508080000000010083
:1028F00001A8A9000080FA00000006000200FA000A
:10290000000F78008000210000328800F070200065
:10291000103288009E007800213288004626EF00A1
:102920000080FA00000006000600FA001007980078
:10293000210798004086A8000000EB00000F7800F7
:102940000C0037001E0090001E0040001040780070
:102950000080FB004032880000000000013280004F
:1029600000082000008060000000E000FBFF3A004B
:102970001E0FE8002E0090009E007800808F50000F
:10298000F0FF39004086A9000000EB000080FA004B
:10299000000006000200FA00000F7800210280000B
:1029A000200F2000008060001E00700020028800C0
:1029B0000080FA00000006000000FA00C3E8A8004A
:1029C00000000000000000000080FA000000060087
:1029D0000000FA005E13020000000000241502004F
:1029E00000000000DC1302000000000036100200AE
:1029F000000000002E14020000000000CE120200B1
:102A000000000000ECFF070000022000E1FF0700CB
:102A10000080FA00000006000200FA00000F7800B3
:102A20009E00780041808800FFFF37000000FA0018
:102A3000C0032100800778004005210000018800C4
:102A40000080FA00000006000000FA000080FA0092
:042A5000000006007C
:02000004000AF0
:10AFE000CFFF0000FFFF000077FF00007AFF0000A6
:08AFF00078FF0000FFFF0000E4
:00000001FF
