:080000000004040000000000F0
:100800008F3921000EFF2C000E018800000000002F
:10081000000020000000E000020032000001200083
:100820002002880014000700F60007000000E00026
:1008300003003A00200E21000100200002003700D2
:100840000000200001002000810F70000100320034
:100850000F000700000020000000E000020032004E
:100860000000020000000000E80E0200000000008E
:100870000040DA000000FE00200020000000E00040
:1008800002003200100020009001880000000600E5
:10089000A1028800800478000000EB001F003700F0
:1008A000E284440054A0B4009905BA00E2844400F4
:1008B00054A0B4009906BA00E284440054A0B400E5
:1008C0000006EB00476FDE00FD07B200AE018800B6
:1008D000636CE10003003A000AD801000000EB005D
:1008E0000E003700606CE10008003A00004DEB009C
:1008F0000A05E800020039003420EC000AF0A000EC
:100900008B05E900F9FF3E00040037006168E10053
:10091000010032000086EB000B00070019C7BA0087
:100920000E04E0001905BA0003003A000A00E000D6
:10093000DBFF3A0000000600FE07B200AE028800AE
:100940008A047800F5FF37000CD0A300E20F4D00B9
:100950001C00390089027800354DBA000A05E8000C
:10096000020039003420EC000AF0A0008B05E900F9
:100970000F003200254DBA000A05E80002003900D8
:100980003420EC000AF0A0008B05E90008003200DA
:100990000C00E0000600320015CDBA000A05E800A0
:1009A000020039003420EC000AF0A0008B05E900B9
:1009B0008984E80054A0B4000B00E000E2FF3A0094
:1009C000000006009902BA00055D78008B05E90079
:1009D000F7FF3200C82ADE00055D78008B05E900CC
:1009E000F3FF32000C00E000F1FF320019DDBA0025
:1009F000EEFF3700B4100400000000003600F800DD
:100A0000809FBE00829FBE00849FBE00869FBE0066
:100A10000000FA00C028A9000000EB0056400200C8
:100A2000000000000080FA004F03BE004F02BE002D
:100A30004F01BE004F00BE003600F9000040060026
:100A40003600F800809FBE00829FBE00849FBE00DB
:100A5000869FBE000000FA00604002000000000017
:100A6000C048A9001000200056400200000000000D
:100A70000080FA004F03BE004F02BE004F01BE00CF
:100A80004F00BE003600F900004006003600F800B6
:100A9000809FBE00829FBE00849FBE00869FBE00D6
:100AA0000000FA00C068A9002000200056400200A3
:100AB000000000000080FA004F03BE004F02BE009D
:100AC0004F01BE004F00BE003600F9000040060096
:100AD0003600F800809FBE00829FBE00849FBE004B
:100AE000869FBE000000FA00C088A90030002000E8
:100AF00056400200000000000080FA004F03BE00D4
:100B00004F02BE004F01BE004F00BE003600F9008C
:100B1000004006003600F800809FBE00829FBE00A5
:100B2000849FBE00869FBE000000FA00C0A8A900F6
:100B30004000200056400200000000000080FA0043
:100B40004F03BE004F02BE004F01BE004F00BE006B
:100B50003600F900004006003600F800809FBE0015
:100B6000829FBE00849FBE00869FBE000000FA00E8
:100B7000C608A900700020005640020000000000D6
:100B80000080FA004F03BE004F02BE004F01BE00BE
:100B90004F00BE003600F900004006003600F800A5
:100BA000809FBE00829FBE00849FBE00869FBE00C5
:100BB0000000FA0021468000000220000080600052
:100BC0000000E00004003200C4A8A900900020004A
:100BD00056400200000000002046800070006000C7
:100BE0000000E00004003200C488A900A00020003A
:100BF0005640020000000000FFFF37000040DA000E
:100C00000000FE00000005006800FA003037980080
:100C10000000EB00000F7800070037003E30900026
:100C2000200090001E004000904078001E80E800E8
:100C3000017778001E0FE8003E3090001000900011
:100C40009E0F5000F5FF3E003E3090009000900057
:100C50000E80E80003002100010178008000780088
:100C600020C0B300780A020000000000000021004C
:100C7000960A0200000000000040EB000080FA002D
:100C8000000006004A00FA004027980030C0B30078
:100C9000104798004E20900010009000E10F500087
:100CA00042003A004E209000200090001040780052
:100CB0000080FB00E10F500020003200E20F5000E6
:100CC0002B0032000000E00030003A00480E020025
:100CD0000000000010079800210798001E009000F7
:100CE000AE0090004808DE0000407800004F9800F9
:100CF0001E009000AE0090004008DE00004078002A
:100D0000104F98001E009000AE0090004809DD00D2
:100D10004800DE0000007100C808DE0000407800D6
:100D2000204F98001E00900000407800304F98003F
:100D300040C0B300004F780023003700D60E0200F9
:100D400000000000300798003E0090004800DE00E0
:100D500000407800004F98003E009000004078006E
:100D6000104F980020C0B300004F780016003700E5
:100D700068004700820E02000000000000C4B300BB
:100D8000004F7800000000000F0037001E40900068
:100D90000044A0001047980000C0EB00004F9800EE
:100DA00010C0B300004F7800070037001E409000CD
:100DB0000054A0001047980000C0EB00004F9800BE
:100DC00010C0B300004F78009E80FB006800470011
:100DD0000300210001017800800078001E4090008F
:100DE000780A02000000000000002100960A0200BC
:100DF000000000000040EB000080FA000000060048
:100E00000A00FA00400798006000B800008FBE009A
:100E100010C0B3004047980040C0B300504798004E
:100E20004E009000100090000000E00031003A00F9
:100E300050052000A10A20002E0B02000000000037
:100E40001100370004012000050020003E0142008F
:100E5000AE814A004A18DD00C610DE008100700035
:100E60004A10DD008C0B020000000000CE40900014
:100E700000C06000404798001200200003002000DE
:100E80001E0F41005E974900F0082000010020007D
:100E90001E0178009E019000800F5100818F590043
:100EA00003003E004E409000E14F5000E5FF3A0045
:100EB0004E409000E14F500009003A000009200028
:100EC000010020001E0178009E019000800F51005B
:100ED000818F590002003A0010C0B30008F0B7003B
:100EE000CE41900063479800380B020000000000DC
:100EF000050037005E4090000054A0005047980065
:100F000000C0EB0060479800660047000300210026
:100F100012002000800078005E409000780A0200F5
:100F20000000000000002100960A020000000000FE
:100F30000040EB000080FA00000006000200FA000A
:100F4000000F78000040EB000080FA00000006006F
:100F50000200FA00000F78000040EB000080FA0069
:100F6000000006000200FA00000F78000040EB00CD
:100F70000080FA00000006000400FA001007980044
:100F8000B0C0B300004F78000040EB000080FA00D2
:100F9000000006000800FA002007980031079800BA
:100FA0002E00900010009000E70F50006700360000
:100FB0002E00900020009000630040001040780058
:100FC0000080FB008000EB003E0190000089BE0025
:100FD0003E00900010027800900290002E009000D9
:100FE000200090000080E800104078000080FB00A6
:100FF0004800DD006101B80000F02F000100200072
:101000000203780003017800800178000100780075
:1010100003036300000061008000EB00C000DD00FE
:10102000000020000001BE006130B8000001710026
:101030008181710002007200838072003E01900085
:101040000089BE003E0090001002780090029000DF
:101050002E009000200090000000E8001040780072
:101060000080FB004000DD006101B90000002000AD
:10107000F10F20000203780003017800800178005E
:101080000100780003036300000061008000EB00B2
:10109000C000DD00000020000001BE006130B8008B
:1010A0000001710081817100020072008380720072
:1010B0003E0190000089BE003E009000900090002C
:1010C000100078008100D1000080D3003E01900024
:1010D0000089BE002E00900090009000010F780063
:1010E0001E017800E60051003E00900021009800AB
:1010F0002E009000A00090001E00E900008040003B
:10110000104078008080FB003E0090004100980075
:101110003E009000C00090002E0090002001900042
:101120001E80E90000004100104078000080FB00B4
:101130004800DD00810070003E00900041009800F2
:101140003E00900081292100310098002E4090003F
:101150000080FA00000006000200FA000A70EF00AA
:101160000E30EF000000EB00000F780005003700A4
:10117000400821001E0040008040EB00014878003C
:101180001E0FE800701020009E007800808F500035
:10119000F7FF3600C01821008040EB0001487800BE
:1011A0000000EB00708C88000080FA000000060050
:1011B0000200FA00C0182100104078000004E0008E
:1011C000090032000410020000000000818C800041
:1011D000810F5000040036000A70EF00C018210093
:1011E0008040EB0001487800101180006100600031
:1011F0000000E00035003200101180006200600045
:101200000000E000010032002222A900301180001D
:10121000004F78000AD0BF000080FB00E10F5000B3
:1012200008003200E20F5000160032000000E0001B
:1012300025003A001E407800260007000AF0B7009B
:10124000220037000CD0BF001E4040000CF0B70059
:101250007080800041082100008040001E48780016
:10126000708080000000E800708088003500070072
:101270000AF0B700808C800074004000808C8800E9
:10128000120037000CD0BF001E4040000CF0B70029
:101290007080800041082100008040001E487800D6
:1012A000708080000000E80070808800480007001F
:1012B0000AF0B700808C800074004000808C8800A9
:1012C0000000000001003700000000000080FA006C
:1012D000000006000600FA00404798000040EB00BE
:1012E000004F7800CE40900050CAB30080CF50002D
:1012F00011003A00041002000000000010079800DE
:1013000010C0B3000AF0B7000E30EF000C70EF0011
:1013100010C0B300004F7800C018210011C0B30006
:10132000014878009E009000718C88001E0090009B
:1013300074004000808C88001E4078000080FA0015
:10134000000006000200FA0010C0B300004F780051
:1013500070808000E20F50001A0036005008210013
:10136000104078000080FB004800DD00808088008D
:1013700060082100104078008080FB0080808000A1
:101380000100700080808800808080000000E00004
:10139000070032008180800050102000808F5000B4
:1013A00003003E0020C0B300004F78000500370066
:1013B0000040EB00004F7800C01821008040EB0097
:1013C000014878001E4078000080FA000000060006
:1013D0000200FA0020C0B300004F78008080800037
:1013E000E300400070808000808F50000D003E00C0
:1013F0000CD0BF00E14F400005003A0010C0B30020
:101400000BF0B7000410020000000000908088007C
:101410000040EB00004F7800C01821008040EB0036
:10142000014878001E4078000080FA0000000600A5
:101430000600FA00200798000000EB00000F78007B
:101440000000EB00100798000BD0BF00E14F5000E8
:1014500023003A0010002000000F78000000EB008D
:10146000100798000D0037002E009000A00090009B
:101470001E009000008040009E009000E38040002D
:101480004208210081004100914078000148780025
:101490001E0090000000E800100798008080800087
:1014A0008000E9001E009000808F5000EEFF3E009B
:1014B00040082100904078002E00900001487800FC
:1014C000808080008000E9002E00900011009800CC
:1014D000918080002E009000310098000B70EF008A
:1014E0001E007800004078000080FA00000006002E
:1014F0000800FA00004F78001107980022079800B2
:10150000330798003E0090001E4878003E0090008F
:10151000AE009000110098003E0090009E009000E8
:10152000210098000080FA00000006006C00FA001C
:10153000503798000040EB00004F78005E3090007C
:10154000100090000000E80020079800A0C5B3003C
:10155000604798005E309000104078007047980017
:101560002E0090004800DE0000407800004F9800F8
:101570002E00900000407800104F9800FE40900030
:101580000E48900080C040001E48900000CF4000F0
:101590000000EB0010079800120037001E009000BA
:1015A00064004000DE309000210190009E00900019
:1015B000810041009140780066004000017778008A
:1015C0005E309000A00090001E009000008040005F
:1015D000104078001E4F40001E0090000000E80000
:1015E000100798005E309000900090001E00900060
:1015F000808F5000E9FF3E001ECFEA001E009000E1
:1016000064004000660040009E407800017778004A
:101610000000EB0010079800080037001E00900043
:10162000660040006E407800C20D0200000000001D
:101630001E0090000000E800100798002E009000A7
:10164000E40040001E009000808F5000F3FF3E0039
:101650000080FA00000006000000FE00C203210026
:101660000019780001097800000006000000FE0063
:101670000000EB008000EB00F8FF07002E27EF00D2
:10168000000006000000FE000000FE00801F780041
:10169000811F7800821F7800C1032100124680005C
:1016A000C3E8A90031007800703988001100780083
:1016B0007039880029E7A800000000000000000041
:1016C00029E7AF00FEFF370002F0A700C3E8A8003B
:1016D0004F017800CF0078004F007800000006002E
:1016E0000000FE00A2028000A10288009080BA00E3
:1016F0001000BA00A2028800000006000000FE00F0
:10170000A2028000A10288001000BA00A202880094
:10171000000006000000FE00F23F20000001610012
:1017200008003A003200240042398800503988000D
:1017300061398800460B0200000000001000200004
:1017400029A7AF0000002000000006000000FE00F6
:1017500029E7AF00FEFF37000000A70013003700A5
:101760000010A70011003700613988005039880047
:101770001000240040398800A0028000A10F200042
:10178000A1028800010020008208BB008398BB00F2
:101790008408BB008598BB00460B020000000000D7
:1017A000A00288001000200029A7AF000000200040
:1017B000000006000000FE0029E7AF00FEFF370032
:1017C0000000A700140037000010A7001200370027
:1017D0006139880050398800A1028000100024007F
:1017E00040398800A00F2000A002880000002000DF
:1017F0000208BB00F20F20000298BB000308BB00E8
:101800000298BB00460B020000000000A102880005
:101810001000200029A7AF000000200000000600F3
:101820000000FE0029E7AF00FEFF3700F3072000AD
:101830008081610009003A005039880061398800D0
:10184000200024004039880082398800460B0200BD
:10185000000000001000200029A7AF0000002000B9
:10186000000006000000FE0029E7AF00FEFF370081
:10187000F30720008081610015003A00503988008C
:10188000613988001000240040398800A00F200032
:10189000A00288000000200001042000F40F2000B6
:1018A0003208BB000498BB003208BB000490BB00A8
:1018B000460B0200000000002AA7EC002AA7EC005B
:1018C0002100B100F6FF3A001000200029A7AF0068
:1018D0000000200000000600F23F20000000610030
:1018E0000000060002C02F0000006100F2FF2F0080
:1018F00081006100000006000000FA00003A80004C
:101900000080FA00000006000200FA00FAFF07005B
:10191000000F78001E007800240007000004E0009B
:101920000200320000002800710007001E0078004D
:101930002A0007000004E00002003200000024003A
:101940006B0007001E007800320007000004E00072
:101950000200320000202000650007001E00780011
:101960003A0007000004E0000200320000082000F6
:101970005F0007001E007800420007000004E0003E
:101980000200320000042000590007001E00780009
:101990004A0007000004E0000200320000012000BD
:1019A000530007000080FA00000006000400FA005F
:1019B000100798000040EB00004F78001E009000D8
:1019C0000000E00002003D0010C0B300004F7800AE
:1019D0001E4078000080FA00000006000400FA00B3
:1019E000100798000040EB00004F78009E00900028
:1019F00000002400008060000000E00002003200CF
:101A000010C0B300004F78001E4078000080FA003C
:101A1000000006000400FA00100798000040EB00E8
:101A2000004F78009E0090000020200000806000A1
:101A30000000E0000200320010C0B300004F780048
:101A40001E4078000080FA00000006000400FA0042
:101A5000100798000040EB00004F78009E009000B7
:101A600000082000008060000000E000020032005A
:101A700010C0B300004F78001E4078000080FA00CC
:101A8000000006000400FA00100798000040EB0078
:101A9000004F78009E00900000042000008060004D
:101AA0000000E0000200320010C0B300004F7800D8
:101AB0001E4078000080FA00000006000400FA00D2
:101AC000100798000040EB00004F78001E009000C7
:101AD000700060000000E0000200320010C0B3009F
:101AE000004F78001E4078000080FA0000000600D9
:101AF0000200FA00000F78009E80EA00003A8000A1
:101B000000806000003A88000080FA0000000600B3
:101B10000000FA004027EF000080FA0000000600F5
:101B20000000FA0080002000001188002222EF004F
:101B3000400420004011880021E2A8002342A800B0
:101B40000080FA00000006000000FA00000000001B
:101B500010118000610060000000E000FCFF320016
:101B600010118000620060000000E00001003200FF
:101B70002222A90030118000004078000080FA0085
:101B8000000006000200FA00004F7800000000008C
:101B90001111800000202000008060000000E000A3
:101BA000FBFF3A001E80FB00201188000080FA0035
:101BB000000006000000FA001011800000407800CC
:101BC000614060000080FB0000F0A7000000EA0018
:101BD0000000EA004F00DE00004078000080FA00BC
:101BE000000006000000FA00111180000020200013
:101BF000008060000000E00007003A001111800042
:101C000000402000008060000000E0000200320080
:101C100010002000010037000000EB0000407800B9
:101C20000080FA00000006000000FA001011800099
:101C30004800DE00614060000080FB0000F0A7006B
:101C40000000EA000000EA004F00DE0000407800DB
:101C50000080FA00000006000000FA001011800069
:101C60000080FA00000006000000FA0021E2A8004F
:101C70002342A8000080FA00000006000000FA00DD
:101C800021E2A9002342A9000080FA00000006001A
:101C90000600FA000000240001002000800B020072
:101CA00000000000000F78001E0078008000EB00AC
:101CB0001007980021079800200024000100200050
:101CC000800B020000000000000F78001E0078006A
:101CD0008000EB00C000DD00000020001E0190002D
:101CE000AE01900000007100818071001007980023
:101CF000210798001E009000AE0090000080FA00BE
:101D0000000006000600FA00200798000040EB00E3
:101D1000104798000040EB00004F78001E0037008D
:101D20009E80FB0000042200008040000000400074
:101D3000CF80DE00800B020000000000100798003A
:101D40001E4090000080FB00AE009000008040002C
:101D50009E00900081407800014878001E4090006D
:101D60000040E800104798001E4090000080FB00F3
:101D7000AE009000008040009E009000C808DE0089
:101D800081407800014878001E4090000040E80043
:101D9000104798001E4FE8001E407800FF4F50008B
:101DA000DFFF36000080FA00000006000200FA00A3
:101DB000000C240001002000800B02000000000045
:101DC000000F78001E0078000080FA000000060076
:101DD0000C00FA00480E020000000000008FBE0058
:101DE000201921004007980002848000138480009D
:101DF000D0EE2F00E10D2C00800F5100818F590093
:101E000009003200403D2C00211B2A001E017800F1
:101E10009E019000800F5100818F590002003A000E
:101E20000044040000000000441102000000000013
:101E3000054EA800AC08020000000000DC0F020004
:101E4000000000000100370000000000960F0200B3
:101E500000000000D80802000000000064004700F5
:101E6000180A020000000000E14F5000F6FF3A009F
:101E70004E4090000080FB00E50F50001C00320037
:101E8000E50F500007003C00E30F50001000320047
:101E9000E30F500012003C00E20F50000800320037
:101EA00017003700EA0F500013003200EB0F50000C
:101EB00012003200E60F50000E0032001000370012
:101EC0006400470004060200000000000D00370017
:101ED00064004700420602000000000009003700CD
:101EE0006400470000070200000000000500370002
:101EF00004003700030037000200370001003700FC
:101F000000000000D1FF37000000FA000021EF00C0
:101F1000F0F920001008880000012800200888003F
:101F20001470EF000080FA00000006000000FA00C4
:101F300000408000680060000000E0000600320001
:101F4000B08080000000E800B080880010C0B300BE
:101F500014F0B7000068A9000080FA000000060035
:101F60000200FA00000F78009E0078001108880037
:101F70001470EF000080FA00000006000000FA0074
:101F8000100880000080FA00000006000200FA003D
:101F9000000F78009E007800010888001470EF00A0
:101FA0000080FA00000006000000FA00000880002F
:101FB0000080FA00000006000000FA001470EF0034
:101FC00005E1A8000080FA00000006000000FA0009
:101FD00005E1A9000080FA00000006000200FA00F6
:101FE0004101210091407800014F78001E407800A7
:101FF0000004E000010032001470EF001E40780081
:102000000080FA00000006000000FA00B0808000A6
:102010000080FA00000006000000FA001630EF0011
:102020000080FA00000006000000FA00042EEF0015
:1020300000102000A0708800242EEF0070382000CF
:1020400000708800F0EF2F0080708800F03B2000C7
:10205000007188000C2EEF001C2EEF002C2EEF00DC
:102060000A2EEF001A2EEF002A2EEF00062EEF00A8
:10207000162EEF00262EEF00A020200070708800A2
:1020800030202000F0708800F0032000707188007C
:10209000113A8000F00B20000081600060042000F5
:1020A0007105200023742000804978008149780060
:1020B000824978000134800000FC2F00808060009D
:1020C00010032000010070000034880031348000CB
:1020D00000FC2F00008060000000A0003034880069
:1020E0002136800000F82F00808060007002200000
:1020F0000100700020368800103A8000000178004E
:102100000260A000600420007105200023742000FC
:102110008049780081497800824978000080FA007F
:10212000000006000000FA00400E28000019880098
:102130004040200010198800F0412100201988003B
:102140002823EF002E23EF00A00020008019880034
:102150003223EF002623EF00400B2100050007008B
:102160000080FA00000006000000FA000080FA007B
:10217000000006000200FA00000F78001E00780040
:10218000D08088000080FA00000006000000FA00FD
:102190000140800000002200008060000000E0009C
:1021A00006003200D08080000000E0000200320013
:1021B000D08080000000010001A8A9000080FA0082
:1021C00000000600981200000001000080000000DE
:1021D000001000000A0000008000000092110000C2
:1021E0000601000080000000841000000E010000C5
:1021F000800000000A1000000A00000080000000BB
:102200003C1000000400000082000000FFFFFF00FF
:10221000FF0000001C1000002000000080000000F3
:10222000181000000200000082000000FFFF000004
:102230001410000004000000800000001A100000CC
:102240000200000080000000000000000200FA0010
:10225000000F780021028000200F20000080600025
:102260001E007000200288000080FA0000000600B6
:102270000000FA00C3E8A800000000000000000011
:102280000080FA00000006000000FA0014100200AE
:10229000000000006E400200000000000440020048
:1022A00000000000900D02000000000092100200EB
:1022B00000000000840F020000000000ECFF070097
:1022C00000022000E1FF07000080FA000000060085
:1022D0000200FA00000F7800800021000032880020
:1022E000F0702000103288009E00780021328800B3
:1022F0004626EF000080FA00000006000600FA0003
:1023000010079800210798000000EB00000F7800EC
:10231000060037001E0090001E00400010407800AC
:102320000080FB00403288001E0FE8002E00900065
:102330009E007800808F5000F6FF39000000EB000F
:082340000080FA000000060015
:10800000DDCC0000BBAA00000000FA002004230021
:10801000203A88004827EF0000602900703A880065
:10802000E0032000303A88006027EF006227EF006D
:108030006427EF006627EF006A27EF006C27EF0048
:108040003200200080072000A109200033742000A6
:108050008049780081497800824978001200200028
:1080600060042000710520002374200080497800FE
:10807000814978008249780000000000103A8000B1
:10808000610060000000E000FCFF3A00000000001A
:10809000113A800000022000008060000000E00033
:1080A000FBFF32000080FA00000006000200FA0028
:1080B000000F78009E007800C1808800FFFF370025
:1080C0000000FA00C0012100800778004003210071
:1080D000000188000080FA00000006000000FA009D
:0880E0000080FA000000060018
:10810000436500006369000020650000737400008F
:10811000207500006E20000074650000737400007C
:10812000000000000000000000000000000000004F
:10813000000000000000000000000000000000003F
:10814000000000000000000000000000000000002F
:10815000000000000000000000000000000000001F
:10816000000000000000000000000000000000000F
:1081700000000000000000000000000000000000FF
:0481800001020000F8
:02000004000AF0
:10AFE000CFFF0000FFFF000077FF00007AFF0000A6
:08AFF00078FF0000FFFF0000E4
:00000001FF
