:080000000004040000000000F0
:100800004F1521000EFF2C000E0188000000000093
:10081000000020000000E000020032000001200083
:100820002002880014000700F60007000000E00026
:1008300003003A00E03E21000100200002003700E2
:100840000000200001002000810F70000100320034
:100850000F000700000020000000E000020032004E
:100860000000020000000000BC13020000000000B5
:100870000040DA000000FE00200020000000E00040
:1008800002003200100020009001880000000600E5
:10089000A1028800800478000000EB001F003700F0
:1008A000E284440054A0B4009905BA00E2844400F4
:1008B00054A0B4009906BA00E284440054A0B400E5
:1008C0000006EB00476FDE00FD07B200AE018800B6
:1008D000636CE10003003A000AD801000000EB005D
:1008E0000E003700606CE10008003A00004DEB009C
:1008F0000A05E800020039003420EC000AF0A000EC
:100900008B05E900F9FF3E00040037006168E10053
:10091000010032000086EB000B00070019C7BA0087
:100920000E04E0001905BA0003003A000A00E000D6
:10093000DBFF3A0000000600FE07B200AE028800AE
:100940008A047800F5FF37000CD0A300E20F4D00B9
:100950001C00390089027800354DBA000A05E8000C
:10096000020039003420EC000AF0A0008B05E900F9
:100970000F003200254DBA000A05E80002003900D8
:100980003420EC000AF0A0008B05E90008003200DA
:100990000C00E0000600320015CDBA000A05E800A0
:1009A000020039003420EC000AF0A0008B05E900B9
:1009B0008984E80054A0B4000B00E000E2FF3A0094
:1009C000000006009902BA00055D78008B05E90079
:1009D000F7FF3200C82ADE00055D78008B05E900CC
:1009E000F3FF32000C00E000F1FF320019DDBA0025
:1009F000EEFF37004C130400000000003600F80042
:100A0000809FBE00829FBE00849FBE00869FBE0066
:100A10000000FA00C028A9000000EB00DC0702007B
:100A2000000000000080FA004F03BE004F02BE002D
:100A30004F01BE004F00BE003600F9000040060026
:100A40003600F800809FBE00829FBE00849FBE00DB
:100A5000869FBE000000FA00E607020000000000CA
:100A6000C048A90010002000DC07020000000000C0
:100A70000080FA004F03BE004F02BE004F01BE00CF
:100A80004F00BE003600F900004006003600F800B6
:100A9000809FBE00829FBE00849FBE00869FBE00D6
:100AA0000000FA00C068A90020002000DC07020056
:100AB000000000000080FA004F03BE004F02BE009D
:100AC0004F01BE004F00BE003600F9000040060096
:100AD0003600F800809FBE00829FBE00849FBE004B
:100AE000869FBE000000FA00C088A90030002000E8
:100AF000DC070200000000000080FA004F03BE0087
:100B00004F02BE004F01BE004F00BE003600F9008C
:100B1000004006003600F800809FBE00829FBE00A5
:100B2000849FBE00869FBE000000FA00C0A8A900F6
:100B300040002000DC070200000000000080FA00F6
:100B40004F03BE004F02BE004F01BE004F00BE006B
:100B50003600F900004006003600F800809FBE0015
:100B6000829FBE00849FBE00869FBE000000FA00E8
:100B7000C608A90070002000DC0702000000000089
:100B80000080FA004F03BE004F02BE004F01BE00BE
:100B90004F00BE003600F900004006003600F800A5
:100BA000809FBE00829FBE00849FBE00869FBE00C5
:100BB0000000FA0021468000000220000080600052
:100BC0000000E00004003200C4A8A900900020004A
:100BD000DC0702000000000020468000700060007A
:100BE0000000E00004003200C488A900A00020003A
:100BF000DC07020000000000FFFF37000040DA00C1
:100C00000000FE00000005000000FA00FFFF3700B2
:100C10000000FA00FFFF37002600FA00881F780066
:100C20000080200001102000F40F020000000000EE
:100C3000008FBE0050052000A10A2000B00E020067
:100C4000000000001E0078009E0090000E0F0200C1
:100C500000000000404798004E4090000004A200B1
:100C60000004E00001003200E7FF0700302322000B
:100C700011012000300798004107980060562500B8
:100C8000410420005007980061079800C0BC2B0069
:100C9000A10A200070079800010F9800F0EF2E00C5
:100CA000D10D2000100F9800210F98005E019000D8
:100CB000EE0190003E009000CE0090000202BE00C7
:100CC0000001BE001E0078009E0090002A0F020066
:100CD00000000000404798004E4090000084FB0058
:100CE0001E099000AE0990007E0090008E089000D2
:100CF00044002000050020003E034200AE834A006D
:100D00000202BE000001BE000600BE002A0F020063
:100D1000000000000080FB000000640000F0A7005D
:100D20000000EA000000EA004F00DE0040479800A3
:100D30004E4090000004A2000004E00001003200D8
:100D4000B1FF0700BA0E0200000000001E0078008C
:100D50009E009000F40E020000000000300F98008A
:100D6000410F980022002000030020003E004100B7
:100D7000AE804900F40E020000000000500F980001
:100D8000610F980044002000050020003E00420052
:100D9000AE804A00F40E020000000000700F9800C0
:100DA0000117980062002000030020003E0041006F
:100DB000AE804900F40E02000000000010179800F9
:100DC000211798003E019000CE0190003E0890004F
:100DD000CE089000800F5100818F590015003A0015
:100DE0005E019000EE0190005E089000EE08900019
:100DF000800F5100818F59000E003A007E01900053
:100E00008E0990007E0890008E109000800F510097
:100E1000818F590007003A001E099000AE0990002A
:100E20001E109000AE109000800F5100818F59006D
:100E30000100320076FF07004F0478000080FA00BE
:100E4000000006000E00FA000080200001102000C3
:100E5000F40F0200000000002007980031079800FE
:100E600050052000A10A2000B00E02000000000082
:100E70002E009000BE0090000E0F02000000000047
:100E8000004F98000E4890000004A2000004E0000B
:100E9000010032005CFF07006000B800008FBE0058
:100EA0001800370024002000050020003E01420009
:100EB000AE814A002E009000BE0090003E0240002D
:100EC000AE8248000400BE000202BE001E0178008F
:100ED0009E0190002A0F020000000000004F9800C1
:100EE0000E4890000004A2000004E000010032005F
:100EF00045FF070042002000030020001E0F4100B4
:100F00005E974900F03F2000010020001E0178009C
:100F10009E019000800F5100818F5900E1FF360043
:100F2000BA0E0200000000006000B800008FBE0092
:100F3000130037002E009000BE0090003E024000DB
:100F4000AE8248000400BE00F40E02000000000063
:100F500050079800610798005E009000EE00900036
:100F6000BE0F5000AE8F58000100320028FF07006E
:100F700022002000030020001E0F41005E97490060
:100F8000F03F2000010020001E0178009E0190002B
:100F9000800F5100818F5900E6FF36000080FA0073
:100FA000000006000000FA001BFF0700A5FF070075
:100FB0000080FA00000006000200FA00000F78002E
:100FC0009E00780061808800FFFF37000000FA0073
:100FD00000132100800778008014210000018800A0
:100FE0000080FA00000006000000FA000080FA000D
:040FF00000000600F7
:1010000000000000000000000000000000000000E0
:1010100000000000000000000000000000000000D0
:1010200000000000000000000000000000000000C0
:1010300000000000000000000000000000000000B0
:101800000200FA000470EF00000121000089880046
:101810000630EF000000EB00000F780005003700F5
:10182000000121001E0040008040EB0001487800CC
:101830001E0FE800401020009E007800808F5000AE
:10184000F7FF3600601121008040EB00014878006E
:101850000000EB00C08888000080FA00000006004D
:101860000200FA0060112100104078000004E0003E
:10187000090032004A12020000000000D1888000F6
:10188000810F5000040036000470EF006011210049
:101890008040EB000148780010118000610060007A
:1018A0000000E0002F003200101180006200600094
:1018B0000000E000010032002222A9003011800067
:1018C000004F780004D0BF000080FB00E10F500003
:1018D00008003200E20F5000130032000000E00068
:1018E0001F003A001E4078002000070004F0B700F7
:1018F0001C00370030808000010121000080400082
:101900001E487800308080000000E80030808800A9
:101910003100070004F0B700D0888000A00FB000AD
:10192000D08888000F00370030808000010121003E
:10193000008040001E487800308080000000E800F1
:10194000308088007100070004F0B700D088800064
:10195000A00FB000D0888800000000000100370010
:10196000000000000080FA00000006000600FA00F7
:10197000404798000040EB00004F7800CE409000B8
:1019800050CAB30080CF500010003A004A12020043
:10199000000000001007980010C0B30004F0B7006A
:1019A0000630EF0010C0B300004F78006011210036
:1019B00011C0B300014878009E009000C1888800E3
:1019C0001E009000A00FB000D08888001E40780054
:1019D0000080FA00000006000400FA0010C0B30006
:1019E000004F78000000EB00100798000001210074
:1019F00010407800E14F50001E003200000121002D
:101A000010407800E24F50001A003200000121001F
:101A100010407800E34F5000160032000001210012
:101A200010407800E44F5000120032000001210005
:101A300010407800E54F50000E00320000012100F8
:101A400010407800E64F50000A00320000012100EB
:101A50009040780010C7B30080CF500005003200DE
:101A6000000121009040780020C7B30080CF5000D3
:101A700021003A0030808000E20F50002000360044
:101A800010012100104078000080FB004800DD00BC
:101A90001007980020012100104078000080FB0012
:101AA0009E00900001007000100798009E009000BA
:101AB00050102000808F500009003E0020C0B3006D
:101AC000004F78009E009000F188880000012100FE
:101AD00090407800C01121000148780008003700CC
:101AE0000040EB00004F7800601121008040EB00C7
:101AF00001487800020037000040EB00004F7800FA
:101B00001E4078000080FA00000006000400FA0081
:101B100020C0B300004F7800F0888000E300400050
:101B200030808000808F500023003E003080800095
:101B30000000E90001012100008040001040780011
:101B40000080FB0010079800308080000080E900D2
:101B50000101210000804000104078000080FB005F
:101B60004800DD009E009000010070001007980002
:101B70009E009000C0C22E00808F500006003A00E8
:101B80000040EB00004F78004012210011C0B3006C
:101B900001487800050037000040EB00004F780056
:101BA0004012210021C0B3000148780060112100DB
:101BB0008040EB00014878001E4078000080FA0069
:101BC000000006000200FA000040EB00004F780021
:101BD0004012210010407800E14F500002003A000E
:101BE00010C0B300004F78001E4078000080FA005B
:101BF000000006000000FA00401221008040EB00C7
:101C0000014878000080FA00000006000800FA0091
:101C1000004F7800110798002207980033079800BA
:101C20003E0090001E4878003E009000AE009000FC
:101C3000110098003E0090009E0090002100980046
:101C40003E0090008040EB00014898000080FA00C0
:101C5000000006000C01FA00500799005E00910098
:101C6000100090000080E80010079800A0C5B300A5
:101C7000404798005E00910010407800504798005F
:101C80001E0090004800DE00004078006047980089
:101C90001E00900000407800704798000000EB00A4
:101CA000000F7800090037009E0078006480400033
:101CB000DE009100A10090009E80400091407800DD
:101CC00064004000017778001E0FE8005E0091007C
:101CD000100090009E0F5000F3FF3E000000EB004C
:101CE000000F7800060037009E00780064804000F6
:101CF0006E40780044110200000000001E0FE80052
:101D00005E00910010009000660040009E0F5000A1
:101D1000F5FF3E000080FA00000006000400FA0013
:101D2000004F780011479800120798001E0090009D
:101D30001E4878001E00900011002000110098003D
:101D40001E4090000080FB00800078001E00900084
:101D5000210098000080FA00000006000000FE004C
:101D60000215210000197800010978000000060022
:101D70000000FE000000EB008000EB00F8FF070011
:101D80002E27EF00000006000000FE000000FE000D
:101D9000801F7800811F7800821F780001152100C4
:101DA00012468000C3E8A90031007800703988002D
:101DB000110078007039880029E7A80000000000B1
:101DC0000000000029E7AF00FEFF370002F0A70087
:101DD000C3E8A8004F017800CF0078004F007800DA
:101DE000000006000000FE00A2028000A1028800A0
:101DF0009080BA001000BA00A2028800000006001D
:101E00000000FE00A2028000A10288001000BA00BB
:101E1000A2028800000006000000FE00F23F200041
:101E20000001610008003A003200240042398800B5
:101E30005039880061398800C80E02000000000097
:101E40001000200029A7AF000000200000000600BD
:101E50000000FE0029E7AF00FEFF37000000A700EA
:101E6000130037000010A700110037006139880007
:101E7000503988001000240040398800A0028000FA
:101E8000A10F2000A1028800010020008208BB00F1
:101E90008398BB008408BB008598BB00C80E020075
:101EA00000000000A00288001000200029A7AF0059
:101EB00000002000000006000000FE0029E7AF003F
:101EC000FEFF37000000A700140037000010A70035
:101ED000120037006139880050398800A102800063
:101EE0001000240040398800A00F2000A0028800C4
:101EF000000020000208BB00F20F20000298BB0087
:101F00000308BB000298BB00C80E020000000000DE
:101F1000A10288001000200029A7AF0000002000C7
:101F2000000006000000FE0029E7AF00FEFF3700BA
:101F3000F30720008081610009003A0050398800D1
:101F400061398800200024004039880082398800E7
:101F5000C80E0200000000001000200029A7AF00FA
:101F600000002000000006000000FE0029E7AF008E
:101F7000FEFF3700F30720008081610015003A0062
:101F800050398800613988001000240040398800E9
:101F9000A00F2000A0028800000020000104200003
:101FA000F40F20003208BB000498BB003208BB00CD
:101FB0000490BB00C80E0200000000002AA7EC003D
:101FC0002AA7EC002100B100F6FF3A001000200023
:101FD00029A7AF000000200000000600F23F20000B
:101FE000000061000000060002C02F000000610038
:101FF000F2FF2F0081006100000006000000FA00DF
:10200000003A80000080FA00000006000200FA009A
:10201000FAFF0700000F78001E0078002400070078
:102020000004E000020032000000280071000700F8
:102030001E0078002A0007000004E00002003200C1
:10204000000024006B0007001E007800320007002B
:102050000004E000020032000020200065000700BC
:102060001E0078003A0007000004E0000200320081
:10207000000820005F0007001E00780042000700F3
:102080000004E000020032000004200059000700B4
:102090001E0078004A0007000004E0000200320041
:1020A00000012000530007000080FA000000060035
:1020B0000400FA00100798000040EB00004F780081
:1020C0001E0090000000E00002003D0010C0B300C0
:1020D000004F78001E4078000080FA0000000600E3
:1020E0000400FA00100798000040EB00004F780051
:1020F0009E00900000002400008060000000E000CE
:102100000200320010C0B300004F78001E4078007B
:102110000080FA00000006000400FA001007980092
:102120000040EB00004F78009E009000002020004F
:10213000008060000000E0000200320010C0B30028
:10214000004F78001E4078000080FA000000060072
:102150000400FA00100798000040EB00004F7800E0
:102160009E00900000082000008060000000E00059
:102170000200320010C0B300004F78001E4078000B
:102180000080FA00000006000400FA001007980022
:102190000040EB00004F78009E00900000042000FB
:1021A000008060000000E0000200320010C0B300B8
:1021B000004F78001E4078000080FA000000060002
:1021C0000400FA00100798000040EB00004F780070
:1021D0001E009000700060000000E000020032006D
:1021E00010C0B300004F78001E4078000080FA0055
:1021F000000006000200FA00000F78009E80EA004E
:10220000003A800000806000003A88000080FA00F8
:10221000000006000000FA004027EF000080FA00EE
:10222000000006000000FA00800020000011880075
:102230002222EF00400420004011880021E2A80083
:102240002342A8000080FA00000006000000FA0007
:102250000000000010118000610060000000E0003C
:10226000FCFF320010118000620060000000E000FE
:10227000010032002222A9003011800000407800C5
:102280000080FA00000006000200FA00004F78000B
:10229000000000001111800000202000008060007C
:1022A0000000E000FBFF3A001E80FB0020118800C8
:1022B0000080FA00000006000000FA001011800003
:1022C00000407800614060000080FB0000F0A70043
:1022D0000000EA000000EA004F00DE000040780045
:1022E0000080FA00000006000000FA0011118000D2
:1022F00000202000008060000000E00007003A009D
:102300001111800000402000008060000000E0000B
:102310000200320010002000010037000000EB0036
:10232000004078000080FA00000006000000FA007B
:10233000101180004800DE00614060000080FB005A
:1023400000F0A7000000EA000000EA004F00DE00F5
:10235000004078000080FA00000006000000FA004B
:10236000101180000080FA00000006000000FA0052
:1023700021E2A8002342A8000080FA000000060025
:102380000000FA0021E2A9002342A9000080FA001F
:10239000000006000000FA000021EF00F0F9200024
:1023A0001008880000012800200888000870EF004D
:1023B0000080FA00000006000000FA0000408000E3
:1023C000680060000000E0000600320050808000DD
:1023D0000000E8005080880010C0B30008F0B7008B
:1023E0000068A9000080FA00000006000200FA0060
:1023F000000F78009E007800110888000870EF0038
:102400000080FA00000006000000FA0010088000BA
:102410000080FA00000006000200FA00000F7800B9
:102420009E007800010888000870EF000080FA0024
:10243000000006000000FA00000880000080FA009A
:10244000000006000000FA000870EF0005E1A80097
:102450000080FA00000006000000FA0005E1A90073
:102460000080FA00000006000200FA00810021004E
:1024700091407800014F78001E4078000004E00091
:10248000010032000870EF001E4078000080FA0062
:10249000000006000000FA00508080000080FA0072
:1024A000000006000000FA000A30EF000080FA0089
:1024B000000006000000FA00042EEF0000102000CB
:1024C000A0708800242EEF00703820000070880073
:1024D000F0EF2F0080708800F03B20000071880032
:1024E0000C2EEF001C2EEF002C2EEF000A2EEF001A
:1024F0001A2EEF002A2EEF00062EEF00162EEF0008
:10250000262EEF00A02020007070880030202000D0
:10251000F0708800F003200070718800113A80008C
:10252000F00B200000816000600420007105200095
:10253000237420008049780081497800824978001E
:102540000134800000FC2F00808060001003200018
:1025500001007000003488003134800000FC2F003E
:10256000008060000000A000303488002136800028
:1025700000F82F00808060007002200001007000D1
:1025800020368800103A8000000178000260A00028
:102590006004200071052000237420008049780029
:1025A00081497800824978000080FA000000060026
:1025B0000000FA0020042300203A88004827EF009A
:1025C00000602900703A8800E0032000303A88005B
:1025D0006027EF006227EF006427EF006627EF0017
:1025E0006A27EF006C27EF003200200080072000F0
:1025F000A1092000337420008049780081497800C7
:10260000824978001200200060042000710520003B
:10261000237420008049780081497800824978003D
:1026200000000000103A8000610060000000E0003F
:10263000FCFF3A0000000000113A80000002200078
:10264000008060000000E000FBFF32000080FA0024
:10265000000006000000FA00400E28000019880063
:102660004040200010198800F04121002019880006
:102670002823EF002E23EF00A000200080198800FF
:102680003223EF002623EF00C034210005000700AD
:102690000080FA00000006000000FA000080FA0046
:1026A000000006000200FA00000F78001E0078000B
:1026B000708088000080FA00000006000000FA0028
:1026C0000140800000002200008060000000E00067
:1026D00006003200708080000000E000020032003E
:1026E000708080000000010001A8A9000080FA00AD
:1026F000000006000200FA00000F780021028000AE
:10270000200F2000008060001E0070002002880062
:102710000080FA00000006000000FA00C3E8A800EC
:1027200000000000000000000080FA000000060029
:102730000000FA005A12020000000000F407020034
:1027400000000000D8120200000000001211020078
:10275000000000002A13020000000000CA1102005D
:1027600000000000ECFF070000022000E1FF07006E
:102770000080FA00000006000000FA009813020032
:1027800000000000054EA800000C02000000000040
:1027900022120200000000000100370000000000CB
:1027A000DC11020000000000300C020000000000FC
:1027B0004012210010407800E14F5000F7FF3A002E
:1027C000401221008040EB0001487800A005200065
:1027D0004411020000000000F1FF3700101000005B
:1027E0002001000080000000041000000400000030
:1027F0008000000050110000040000008200000072
:10280000FFFFFF00FF00000030110000200000006B
:10281000800000000C100000020000008200000098
:10282000FFFF00000810000004000000800000000E
:102830000E100000020000008000000000000000F8
:102840000000FA000080FA00000006000600FA000E
:10285000004F780011079800220798000080FA00C6
:04286000000006006E
:02000004000AF0
:10AFE000CFFF0000FFFF000077FF00007AFF0000A6
:08AFF00078FF0000FFFF0000E4
:00000001FF
