:080000000004040000000000F0
:100500004D610000722000003234000020320000F3
:100510003032000033200000313200003A31000058
:10052000393A000030340000203A00002042000038
:100530006F6F0000746C00006F6100006465000064
:100540007220000073740000616E0000646100009E
:100550006C6F00006E6500000000000000000000ED
:10056000000000000000000000000000000000008B
:10057000000000000000000000000000000000007B
:10058000000000000000000000000000000000006B
:10059000000000000000000000000000000000005B
:1005A000000000000000000000000000000000004B
:1005B000000000000000000000000000000000003B
:1005C000000000000000000000000000000000002B
:1005D000000000000000000000000000000000001B
:1005E000000000000000000000000000000000000B
:1005F00000000000000000000000000000000000FB
:0406000001000000F5
:100800004F5121000EFF27000E018800000000005C
:10081000000020000000E000020032000001200083
:100820002002880014000700F60007000000E00026
:1008300003003A00E0F82100010020000200370028
:100840000000200001002000810F70000100320034
:100850000F000700000020000000E000020032004E
:1008600000000200000000003C2002000000000028
:100870000040DA000000FE00002020000000E00040
:1008800002003200002020009001880000000600D5
:10089000A1028800800478000000EB001F003700F0
:1008A000E284440054A0B4009905BA00E2844400F4
:1008B00054A0B4009906BA00E284440054A0B400E5
:1008C0000006EB00476FDE00FD07B200AE018800B6
:1008D000636CE10003003A000AD801000000EB005D
:1008E0000E003700606CE10008003A00004DEB009C
:1008F0000A05E800020039003420EC000AF0A000EC
:100900008B05E900F9FF3E00040037006168E10053
:10091000010032000086EB000B00070019C7BA0087
:100920000E04E0001905BA0003003A000A00E000D6
:10093000DBFF3A0000000600FE07B200AE028800AE
:100940008A047800F5FF37000CD0A300E20F4D00B9
:100950001C003B0089027800354DBA000A05E8000A
:10096000020039003420EC000AF0A0008B05E900F9
:100970000F003200254DBA000A05E80002003900D8
:100980003420EC000AF0A0008B05E90008003200DA
:100990000C00E0000600320015CDBA000A05E800A0
:1009A000020039003420EC000AF0A0008B05E900B9
:1009B0008984E80054A0B4000B00E000E2FF3A0094
:1009C000000006009902BA00055D78008B05E90079
:1009D000F7FF3200C82ADE00055D78008B05E900CC
:1009E000F3FF32000C00E000F1FF320019DDBA0025
:1009F000EEFF3700AE200400000000003600F800D3
:100A0000809FBE00829FBE00849FBE00869FBE0066
:100A10000000FA00C028A9000000EB0074210200C9
:100A2000000000000080FA004F03BE004F02BE002D
:100A30004F01BE004F00BE003600F9000040060026
:100A40003600F800809FBE00829FBE00849FBE00DB
:100A5000869FBE000000FA007E2102000000000018
:100A6000C048A9001000200074210200000000000E
:100A70000080FA004F03BE004F02BE004F01BE00CF
:100A80004F00BE003600F900004006003600F800B6
:100A9000809FBE00829FBE00849FBE00869FBE00D6
:100AA0000000FA00C068A9002000200074210200A4
:100AB000000000000080FA004F03BE004F02BE009D
:100AC0004F01BE004F00BE003600F9000040060096
:100AD0003600F800809FBE00829FBE00849FBE004B
:100AE000869FBE000000FA00C088A90030002000E8
:100AF00074210200000000000080FA004F03BE00D5
:100B00004F02BE004F01BE004F00BE003600F9008C
:100B1000004006003600F800809FBE00829FBE00A5
:100B2000849FBE00869FBE000000FA00C0A8A900F6
:100B30004000200074210200000000000080FA0044
:100B40004F03BE004F02BE004F01BE004F00BE006B
:100B50003600F900004006003600F800809FBE0015
:100B6000829FBE00849FBE00869FBE000000FA00E8
:100B7000C608A900700020007421020000000000D7
:100B80000080FA004F03BE004F02BE004F01BE00BE
:100B90004F00BE003600F900004006003600F800A5
:100BA000809FBE00829FBE00849FBE00869FBE00C5
:100BB0000000FA0021468000000220000080600052
:100BC0000000E00004003200C4A8A900900020004A
:100BD00074210200000000002046800070006000C8
:100BE0000000E00004003200C488A900A00020003A
:100BF0007421020000000000FFFF37000040DA000F
:100C00000000FE00000005008001780002003700AF
:100C1000B15978000201E9000200E000FCFF3A004F
:100C200000000600889FBE008A9FBE0080047800F6
:100C30000200E0005A00320001407800814C780048
:100C400082814400F1F99F00E20F51005400360008
:100C500091449800A1449800E1F99F00D1F99F00C8
:100C6000E60F51004E003600B1449800C1F99F00D4
:100C7000E80F51004A0036000905EA0063056500E7
:100C80000A8444000A055100C1FF2F0001056500D8
:100C90000080FB008000EB001210200013102000E9
:100CA00043000700008CBE000A01440060B99F00A9
:100CB00071B99F00E80F55003900360020049800F4
:100CC00031049800400498005104980020B99F0016
:100CD00031B99F0040B99F0051B99F00F80F5500EE
:100CE0002F0036006004980071049800000C9800F2
:100CF000110C9800200C9800310C9800400C9800C2
:100D0000510C980020B19F0031B19F0040B19F006D
:100D100051B19F0060B19F0071B19F0000B99F0069
:100D200011B99F006401640078014100020444008D
:100D3000020555006011B8000203BE000002BE00AB
:100D40000403BE006022B8000000720081807200BF
:100D500002017300838173000F00370008027800DE
:100D6000009ABE00029ABE00009ABE000292BE0027
:100D7000000C9800110C9800220C9800330C98007D
:100D8000400C9800510C9800620C9800730C98006D
:100D90000A02B1000802B000FF0F5500EFFF3E004D
:100DA000090078004F05BE004F04BE000000060099
:100DB000020AB900001BB9000200B800810042001D
:100DC00081004300000006000000000089110000BF
:100DD000122300009B32000024460000AD570000A3
:100DE00036650000BF740000488C0000C19D000003
:100DF0005AAF0000D3BE00006CCA0000E5DB000063
:100E00007EE90000F7F800008110000008010000F2
:100E1000933300001A220000A55600002C47000062
:100E2000B77500003E640000C99C0000408D0000C2
:100E3000DBBF000052AE0000EDDA000064CB000022
:100E4000FFF9000076E80000022100008B3000006E
:100E5000100200009913000026670000AF76000022
:100E600034440000BD5500004AAD0000C3BC000082
:100E7000588E0000D19F00006EEB0000E7FA0000E2
:100E80007CC80000F5D90000833100000A20000072
:100E90009112000018030000A77700002E660000E2
:100EA000B55400003C450000CBBD000042AC000042
:100EB000D99E0000508F0000EFFB000066EA0000A2
:100EC000FDD8000074C90000044200008D530000EA
:100ED000166100009F70000020040000A9150000AA
:100EE00032270000BB3600004CCE0000C5DF0000FA
:100EF0005EED0000D7FC000068880000E19900006A
:100F00007AAB0000F3BA0000855200000C430000E9
:100F1000977100001E600000A11400002805000069
:100F2000B33700003A260000CDDE000044CF0000B9
:100F3000DFFD000056EC0000E99800006089000029
:100F4000FBBB000072AA0000066300008F72000065
:100F5000144000009D51000022250000AB34000029
:100F600030060000B91700004EEF0000C7FE000079
:100F70005CCC0000D5DD00006AA90000E3B80000E9
:100F8000788A0000F19B0000877300000E62000069
:100F9000955000001C410000A33500002A240000E9
:100FA000B116000038070000CFFF000046EE000039
:100FB000DDDC000054CD0000EBB9000062A80000A9
:100FC000F99A0000708B00000884000081950000F1
:100FD0001AA7000093B600002CC20000A5D30000A1
:100FE0003EE10000B7F0000040080000C919000011
:100FF000522B0000DB3A0000644E0000ED5F000061
:10100000766D0000FF7C00008994000000850000E0
:101010009BB7000012A60000ADD2000024C3000060
:10102000BFF1000036E00000C118000048090000D0
:10103000D33B00005A2A0000E55E00006C4F000020
:10104000F77D00007E6C00000AA5000083B400005C
:1010500018860000919700002EE30000A7F2000020
:101060003CC00000B5D1000042290000CB38000090
:10107000500A0000D91B0000666F0000EF7E0000E0
:10108000744C0000FD5D00008BB5000002A4000060
:101090009996000010870000AFF3000026E20000E0
:1010A000BDD0000034C10000C33900004A28000050
:1010B000D11A0000580B0000E77F00006E6E0000A0
:1010C000F55C00007C4D00000CC6000085D70000D8
:1010D0001EE5000097F4000028800000A1910000A8
:1010E0003AA30000B3B20000444A0000CD5B000008
:1010F00056690000DF780000600C0000E91D000068
:10110000722F0000FB3E00008DD6000004C70000D7
:101110009FF5000016E40000A99000002081000067
:10112000BBB3000032A20000C55A00004C4B0000C7
:10113000D77900005E680000E11C0000680D000027
:10114000F33F00007A2E00000EE7000087F6000053
:101150001CC4000095D500002AA10000A3B0000027
:1011600038820000B1930000466B0000CF7A000087
:1011700054480000DD590000622D0000EB3C0000E7
:10118000700E0000F91F00008FF7000006E6000057
:101190009DD4000014C50000ABB1000022A00000E7
:1011A000B992000030830000C77B00004E6A000047
:1011B000D55800005C490000E33D00006A2C0000A7
:1011C000F11E0000780F00000000FA000170EF002F
:1011D0000270EF000E30EF001030EF0062002100CF
:1011E0006000B8000089BE00620021006000B80005
:1011F000640141000089BE000080FA000000060082
:101200000000FA00F41E02000000000081382100F6
:1012100001004000208088000080FA0000000600E5
:101220000000FA00861E020000000000F41E02000A
:101230000000000021808000810F50000A0036006D
:1012400000D0BF000004E00003003A0002D0BF005D
:101250000004E00004003200DBFF07004A21020026
:10126000000000000000FE000080FA000000060000
:101270000C01FA00A11020008E8040008048780008
:101280000040EB00004F780064004700A1102000F0
:101290008E80400011487800110020000E80E80088
:1012A000010878000E0078000E1702000000000010
:1012B0000080FA00000006000400FA00889FBE00CB
:1012C0000020200001002000C01A020000000000E1
:1012D0006104B8002020200001002000C01A020094
:1012E000000000008000EB00C000DD0000002000D6
:1012F000001F7400019774001E0178009E01900089
:10130000403D2C00211B2A000000690081806900FB
:101310000080700000F0A7000000EA000000E90073
:101320004F00DE000040780000F0B700A6FF070085
:101330000060FE004F04BE000080FA0000000600BE
:101340000E01FA000000EB00000F780011002000F1
:101350000E80E80001087800A9FF0700640047003C
:101360001C18020000000000800078000E80E800D9
:101370000108780000D0BF000004E0002600320021
:10138000F41E02000000000091808000810F5000D8
:101390000900360000C1B300B5FF0700F41E0200CB
:1013A000000000004006B0009080880014D0BF000C
:1013B0000040E80014F0B7000E80E800100078004C
:1013C0000000E00005003A00F0C0B300A8FF0700ED
:1013D00010002000000F780013003700F41E0200F8
:1013E00000000000C1122000810F500003003E00E9
:1013F00014D0BF00E34F50000B003600D61E020091
:10140000000000004A21020000000000004004002B
:101410000000000004003700F0C0B30094FF070094
:1014200010002000000F78001E0078000080FA00F5
:10143000000006000E01FA0010002000000F7800E6
:10144000110020000E80E800010878000060FE0016
:10145000640047001C180200000000000000E000CB
:1014600029003A0066FF070064004700104078003A
:101470000080FB00E10F500003003200E30F50003A
:10148000070032000C003700640047005D000700D1
:10149000800078000E80E800010878001500370011
:1014A0006400470074000700800078000E80E800A8
:1014B000010878000F0037006400470010407800F2
:1014C000804078000174A000801A21000148780053
:1014D000C01A210021C0B30001487800100020008C
:1014E000508D8800801A21000E17020000000000B5
:1014F0000000000002D0BF000004E0000200320043
:1015000020002000000F78001E0078000080FA0004
:10151000000006000E01FA00210020000E80E80005
:1015200001087800640047001C1802000000000059
:101530000000E0002F003A0031FF07000060FE00CD
:1015400064004700104078000080FB00E50F500069
:1015500008003200E60F50000A003200E40F50008D
:101560000C003A0064004700D5000700000F780027
:1015700017003700640047005A010700000F780089
:1015800013003700640047009B010700000F78003C
:101590000F0037006400470010407800804078005A
:1015A0000174A000801A210001487800C01A2100AF
:1015B00021C0B3000148780010002000508D880041
:1015C000801A21000E170200000000000000000039
:1015D0001E0078000000E00006003200F0C0B300FA
:1015E00023FF0700110020000E80E80001087800AA
:1015F000F5FE07000E80E800100078000080FA0079
:10160000000006000400FA008E80E80080087800E0
:101610000000EB00000F780010C0B30002F0B7002C
:10162000F7FE0700861E0200000000000E80E800A2
:101630001000780010407800804078000174A0000D
:10164000801A2100014878001E0078008040780050
:10165000C01A21000148780010002000508D880039
:10166000801A21000E170200000000001E00780002
:101670000080FA00000006000C00FA00889FBE00FF
:10168000EA004700800878000000EB00000F7800B7
:10169000C11A21000E80E800010878001E007800C1
:1016A000004078008E80E800910078008048780043
:1016B0006A004700100078001040780080407800F1
:1016C0000174A000801A2100014878001000200059
:1016D000508D88006A0047001000780064004000C8
:1016E000104078000080FB00E10F50003D00320008
:1016F000E20F5000550032000000E0005F003A00A9
:101700000020200001002000C01A0200000000009C
:101710006104B8002020200001002000C01A02004F
:10172000000000008000EB00C000DD000000200091
:101730000000740081807400640147000089BE00CD
:101740000E80E800100078000001E8006400470007
:1017500090009000100078004808DE0000407800FB
:10176000004978000E80E800100078000081E80051
:101770006400470090009000100078004008DE00F0
:1017800000407800004978000E80E80010007800E2
:101790006301400064004700900090001000780052
:1017A000C809DD004800DE0000807100C808DE00C6
:1017B00000407800004978000E80E80010007800B2
:1017C00064004000E4004700910078008140780008
:1017D00001487800508D800064004000508D8800E2
:1017E000290037000030200001002000C01A02004C
:1017F00000000000800078006800470001087800C1
:101800000E80E800100078000000E800E8004700C3
:1018100091007800C808DE00814078000148780017
:101820000E80E800100078000080E800E800470023
:10183000910078008140780001487800508D800048
:101840000080E800508D88000F0037000E80E8000F
:10185000100078000000E8000228200003002000AB
:10186000010820009012020000000000508D80004E
:101870000008B000508D88000300370030002000C1
:10188000000F7800000000001E0078000000E0005B
:10189000040032001E00780080407800C01A210049
:1018A00001487800801A21000E1702000000000095
:1018B0001E0078004F04BE000080FA000000060001
:1018C0000A00FA00E8004700800878000000EB00FA
:1018D000000F78006000B8000E81E8000089BE00AB
:1018E00011C0B30066004700014878006000B800EE
:1018F000B21A020000000000620021000089BE0050
:101900002000200001002000B21A020000000000A8
:1019100062002100640141000089BE0002D0BF00C6
:101920000004E00002003A0020002000000F7800D0
:101930001E0078000000E00057003A00500520002B
:10194000A10A20006E1A0200000000006000B8002A
:10195000CC1A020000000000E60047008048780032
:1019600060002100640040001001780090019000A8
:101970006000210090009000100078000202BE007C
:101980000001BE006000B800E81A0200000000007C
:10199000E60047009140780080C060006600470084
:1019A000014878001B0037000E80E800900090008E
:1019B0001000780070014000E08148004A18DD0006
:1019C000C610DE00810070004A10DD00CC1A020053
:1019D00000000000E60047009140780080C06000F1
:1019E00066004700014878000E80E80090009000F3
:1019F0001000780061004000E08048000E81E8009F
:101A00000089BE00861E020000000000FCFD0700E9
:101A10000060FE000E80E800100178009001900048
:101A20004014200001002000800F5100818F5900D8
:101A300004003E006600470010407800E14F50006F
:101A4000D9FF32006600470010407800E14F500097
:101A50000D003A000E80E80010017800900190001F
:101A60005014200001002000800F5100818F590088
:101A700005003A0010C0B30001F0B7000E30EF00CF
:101A80001030EF000200370080002000000F7800C7
:101A9000781A02000000000068004700100078007B
:101AA00010407800804078000174A000801A210066
:101AB0000148780010002000508D88001E0078003A
:101AC00080407800C01A210001487800801A210067
:101AD0000E170200000000001E0078000080FA00CF
:101AE000000006000400FA008E80E80080087800FC
:101AF0000000EB00000F780002D0BF000004E000FF
:101B000003003A0020002000000F78000500370095
:101B100001D0BF000004E00002003A009000200065
:101B2000000F78001E0078000000E00005003A0079
:101B3000010221000E80E80010007800500107002B
:101B4000000F78001E0078000000E00010003A004E
:101B500050052000A10A20006E1A020000000000BB
:101B6000008180001181800062122100521B02005E
:101B7000000000000004A2000004E00002003200A7
:101B8000C0002000000F7800781A0200000000005A
:101B90001E0078000000E00004003A00000221006E
:101BA000B213020000000000000F78000E80E80071
:101BB0001000780010407800804078000174A00088
:101BC000801A21000148780010002000508D880004
:101BD0001E00780080407800C01A2100014878007B
:101BE000801A21000E170200000000001E0078007D
:101BF0000080FA00000006001801FA0061112000C0
:101C00008E804000800878000000EB00000F780014
:101C10008000EB000E80E8000108780060112000D1
:101C20000E00400010007800660040001040780070
:101C30000080FB00C800DD00601120000E004000A5
:101C40001000780067004000104078000080FB0022
:101C50008100700064004700010878008000EB00FC
:101C6000001120000E004000010878008000EB0009
:101C700066004700010878008000EB00680047001C
:101C8000010878006000B8006A0147000089BE00C2
:101C9000413D2C00201120000E004000010878007A
:101CA000211B2A00401120000E004000010878008E
:101CB00011C0B3006E0047000148780002D0BF0099
:101CC0000004E00003003A0020002000000F78002C
:101CD0000500370001D0BF000004E00002003A0018
:101CE00090002000000F78001E0078000000E00047
:101CF000E0003A008000EB000E80E8000108780068
:101D0000350037000E80E800100078004700DD0045
:101D10008000EB006A0147000089BE006F004700A9
:101D2000EA00470011017800910190004A13020077
:101D3000000000006A00470090009000100078004A
:101D4000E00F5000E08F580018003A0080C0EB0010
:101D50006F0047000148780080C0EB00700047002A
:101D60000148780080C0EB0071004700014878000E
:101D70008040EB00720047000148780080C0EB0013
:101D8000730047000148780080C0EB0074004700F2
:101D90000148780080C0EB007500470001487800DA
:101DA0008040EB007600470001487800EF004700D4
:101DB000001120000E004000021020004A1F020007
:101DC000000000000E80E800100078008000E800AD
:101DD0000E80E800010878000E80E800100078000E
:101DE000E70F5000C7FF36006600470001112000D2
:101DF0008E804000110878000060FE008000EB003B
:101E00000E80E80001087800180037000E80E80016
:101E1000100078000008B0004700DD008000EB00F3
:101E20006A0147000089BE006F004700EA004700D2
:101E300011017800910190004A1302000000000097
:101E4000EF004700001120000E00400002102000AB
:101E50004A1F0200000000000E80E8001000780019
:101E60008000E8000E80E800010878006400470068
:101E700010007800680050008E80E8009100780023
:101E8000810F5000E1FF3E00680047000111200073
:101E90008E80400011087800601120000E00400084
:101EA000100078006400400090407800001120008D
:101EB0000E004000041F020000000000601120001E
:101EC0000E0040001000780065004000904078004F
:101ED000001120000E004000041F0200000000005E
:101EE000001120000E00400090007800800B2F00B1
:101EF000808F50001F003A000060FE005005200057
:101F0000A10A20006E1A020000000000401120000B
:101F10000E004000100078006101B8002011200080
:101F20000E004000100078008000EB000202BE00AE
:101F30000001BE000020200001002000E81A02007D
:101F400000000000EE00470080487800781A020088
:101F5000000000006E004700104078000004A2005E
:101F60000004E0000500320030002000000F78007F
:101F700002003700D0002000000F78006011200020
:101F80000E0040001000780010407800804078007B
:101F90000174A000801A2100014878007000200020
:101FA000508D88001E00780080407800C01A210003
:101FB0000148780066004700100078004800DE0005
:101FC00080407800D01A2100014878006600470060
:101FD0001000780080407800E01A21000148780065
:101FE00068004700100078004800DE00804078005C
:101FF000F01A2100014878006800470010007800BE
:1020000080407800001B210001487800001120006A
:102010000E004000100078004800DE00804078008C
:10202000101B210001487800001120000E00400024
:102030001000780080407800201B210001487800C3
:10204000801A21000E170200000000001E00780018
:102050000000E00007003A00200320001E210200DB
:1020600000000000D61E02000000000056FC070021
:102070000000FE001E0078000080FA00000006004C
:102080000C00FA00889FBE008A9FBE008C9FBE0095
:1020900068014700000978006A00470001087800DD
:1020A0000000EB00000F78008040EB000E80E8009D
:1020B000014878008000EB006400470001087800C8
:1020C0008000EB00660047000108780068004700C8
:1020D000100078000080E8001001780068004700D8
:1020E00010007800E4004000660047004A1F02002C
:1020F000000000006600470090007800800B2F0071
:10210000808F500002003200B0002000000F7800E5
:102110001E0078000000E00093003A0068004700CD
:102120001000780066004000104078000080FB003E
:102130008000EB006A014700120178000089BE00B0
:102140006A004700100078001002780090029000AA
:1021500068004700100078006500400010407800DB
:102160000080FB008000EB004809DD00C801DE00B4
:10217000830171004801DD00F0FF2F000100200005
:102180000203780003017800800178008100780064
:10219000030063008100610081067800000678007A
:1021A0000C00BE0000007200818072006A014700CE
:1021B000120178000089BE006A0047001000780014
:1021C000100278009002900068004700100078002C
:1021D00064004000104078000080FB008000EB00AD
:1021E000C001DD000200200000002000F10F2000EF
:1021F00002037800030178008001780081007800F4
:10220000030063008100610081057800000578000B
:102210000A00BE0000007200818072006A0147005F
:10222000120178000089BE006A00470010007800A3
:1022300090009000100078008100D1000080D30051
:102240006A014700120178000089BE00680047005B
:10225000100078000080E80010007800E5005000D1
:102260006A00470010007800640040000108780010
:102270006A0047001000780010017800900190007B
:10228000F00720000100200002027800030178001E
:102290008001780081007800030062008100610005
:1022A00081047800000478000800BE00E00F5000B0
:1022B000E08F580002003200A0002000000F7800DC
:1022C0006A0047001000780010017800900190002B
:1022D000F03F200001002000800F5100818F590045
:1022E0000B0036006A0047001000780010017800EB
:1022F00090019000F0FF230001002000800F5100AA
:10230000818F590002003E00A0002000000F7800DD
:102310006A004700100078001001780090019000DA
:10232000F03F250051002000800F5100818F59009F
:1023300002003600A0002000000F78006A0047006D
:1023400010007800100178009001900070808000EB
:1023500081808000800F5100818F59000200310080
:10236000A0002000000F78001E0078000000E000B0
:1023700065003A008000EB00640047000108780027
:102380002C0037000E80E800104078000080FB0031
:10239000EA00470091007800E48040009100780056
:1023A000810F5000160031000E80E80010407800C8
:1023B0000080FB0063004000E800470091007800C7
:1023C0006400400000804000904078006A004700B0
:1023D0001001780064004700100078000000410000
:1023E00066004000014878000E80E8001040780048
:1023F0008040E8000E80E8000148780008003700BF
:102400006A004700900078006400470010007800E0
:10241000008040006600400080C0EB00014878006A
:1024200064004700100078008000E8006400470066
:10243000010878006400470090007800F00F200049
:10244000808F5000CFFF36006A00470010007800F0
:10245000E60040006A004700100078006010B000FD
:1024600002102000401402000000000080007800EC
:1024700064004700010878006A00470010007800F7
:102480009000900010007800E00F5000E08F58009E
:102490000F003A00600021009000900010007800CA
:1024A0006A014700120178006210B0000089BE0086
:1024B000600021006400400090009000100078004F
:1024C0006A01470012017800A210B0000089BE0026
:1024D00064004700100078000000E00002003A00AD
:1024E00030002000000F78006A00470010007800DC
:1024F000900090001000780062004000E0804800EA
:1025000070808800818088001E0078004F06BE0021
:102510004F05BE004F04BE000080FA000000060018
:102520001400FA006C024700000A78006E004700B1
:1025300001087800700047000288BE008000EB00B0
:1025400064004700010878008000EB006600470047
:10255000010878000000EB00000F78008000EB001D
:102560000E80E800010878006E0047001000780037
:102570008000D10068004700010878006A00470029
:10258000EC004700110878000000EB00000F780015
:10259000370037001E007800000040006101B800DD
:1025A000700047009000900010007800020040008A
:1025B00083804800C01A02000000000080007800FC
:1025C00066004700010878000E80E800900078005F
:1025D0006E00470010007800808F50000E00310020
:1025E0006A004700900078000E80E8001000780034
:1025F00000804000E60047009100780081407800AC
:10260000014878000E80E800100078008000E800A3
:102610000E80E800010878000E80E8009000780045
:102620006E00470010007800808F50000F003100CE
:102630006A004700900078000E80E80010007800E3
:1026400000804000E600470091007800C808DE00E6
:1026500081407800014878000E80E8001000780082
:102660008000E8000E80E800010878001E0FE800F6
:1026700068004700100078009E007800808F5000AE
:10268000C4FF390064004700100078000080FA00A1
:10269000000006000C01FA00611020008E8040004E
:1026A00080087800801020000E0040000288BE00E4
:1026B0008000EB000E80E80001087800640047000D
:1026C000611020008E804000110878000000EB00AF
:1026D000000F7800E60047007F0009008018EB003B
:1026E0000000EB00000F7800110037001E0078009A
:1026F000000040006101B800801020000E00400082
:102700009000900010007800020040008380480094
:10271000B21A0200000000001E0178004211DD0024
:1027200066014100020147000089BE001E0FE8005B
:10273000F00320009E007800808F5000EBFF3600F1
:102740006600470002042000E40047009100780082
:10275000CA0007000E80E800100078000080FA0030
:10276000000006000E00FA00EC0047008008780028
:102770000000EB00000F78006000B8000E81E80058
:102780000089BE008000EB00660047000108780069
:102790008000EB0066004700010878002800370041
:1027A0006C00470010007800100178009001900044
:1027B0006600470010007800000040008000EB0039
:1027C0000200400083804800B21A020000000000AE
:1027D000680147000089BE006C0047009000780047
:1027E00066004700100078004200DD006010B00075
:1027F00000804000100178009001900068004700C0
:10280000900090001000780000006900818069004D
:102810000E81E80092019000120178000000710022
:10282000818071000E81E8000089BE0066004700CB
:10283000100078008000E80066004700010878007A
:102840006600470090007800F0032000808F500061
:10285000D3FF36000E80E800900090001000780052
:10286000E00F5000E08F580002003200C00020004E
:10287000000F78001E0078000080FA0000000600BB
:102880000E00FA00889FBE008A9FBE00E801470044
:10289000800978006A004700010878006C00470052
:1028A000020878000000EB00000F78008000EB00C9
:1028B0000E80E800010878008040EB0066004700C9
:1028C000014878008040EB00640047000148780030
:1028D0008040EB0065004700014878005C0037004D
:1028E0006A004700100078009E0040006600470024
:1028F000114878001E0FE8006C00470010007800B7
:102900009E007800808F5000070031006A00470069
:10291000100078009E0040006400470011487800D5
:102920001E0FE800030037008040EB006400470002
:10293000014878006C004700100078009E00780085
:10294000808F5000070031006A00470010007800B7
:102950009E00400065004700114878001E8FE80087
:10296000030037008040EB00650047000148780015
:102970000E80E800100078004200DD00E80047000B
:102980009100780000854000660047001040780004
:102990000084FB008004EB006400470010407800D6
:1029A0000080FB008000EB004809DD00C801DE006C
:1029B000830171004801DD00F0FF2F0001002000BD
:1029C000820578000301780080017800810078009A
:1029D00003806500810061008102780000027800B8
:1029E0000400BE0000047400818474006500470088
:1029F000104078000080FB008000EB00C001DD008B
:102A00000200200000002000F10F20008205780065
:102A10000301780080017800810078000380650060
:102A20008100610081037800000378000600BE0089
:102A30000000740081807400008DBE000E80E800EC
:102A4000100078008000E8000E80E800010878009F
:102A50006C004700100078009E007800808F5000C6
:102A60009FFF39000E80E800100078004F05BE007F
:102A70004F04BE000080FA00000006000C00FA00BF
:102A8000E6014700800978006800470001087800E7
:102A90006A0047000208780066004700100F7800BF
:102AA0000E80E800E8004700110878008000EB0085
:102AB00064004700010878008000EB0064004700D4
:102AC000010878003D0037001E007800900090005B
:102AD00010007800004078008E80E80091007800B7
:102AE000804878000E80E800100078008000E80040
:102AF0000E80E800010878001E0078009000900029
:102B0000100078004809DD004800DE000000710078
:102B1000C808DE00004078008E80E8009100780050
:102B2000804878000E80E800100078008000E800FF
:102B30000E80E800010878001E00780090009000E8
:102B4000100078004008DE00004078008E80E80029
:102B500091007800804878000E80E800100078002E
:102B60008000E8000E80E800010878001E00780070
:102B700090009000100078004808DE0000407800C7
:102B80008E80E80091007800804878000E80E80090
:102B9000100078008000E8000E80E800010878004E
:102BA0009E007800648F40006400470010007800A9
:102BB0008000E800640047000108780064004700D6
:102BC000900078006A00470010007800808F500065
:102BD000BDFF39000080FA00000006000000FA0086
:102BE0001A30EF000080FA00000006000400FA002E
:102BF0000060FE00804C2100104078000080FB0047
:102C00000000D100004078000080FB0061006000FF
:102C1000004078000004E00012003200F41E0200C0
:102C20000000000051A68000810F50000D0036000A
:102C3000804C2100104078000080FB0061006000A3
:102C40000000E00007003A001A30EF00804C21003D
:102C500010407800804078000114A100804C2100D1
:102C60000148780010118000610060000000E00061
:102C70006800320010118000620060000000E00077
:102C8000010032002222A90030118000004F78009C
:102C9000D08080000000E00003003200E10F50000F
:102CA000230032005B00370050CAB3009E4078001A
:102CB00080CF500050003A00804C21001040780036
:102CC0000080FB00610060000000E0004C003A0062
:102CD000804C2100104078000080FB000000D100F3
:102CE000004078000080FB00610060000000E00010
:102CF00045003A00804C2100104078008040780068
:102D00000114A000804C2100014878000000EB0075
:102D1000E09D8800F41E020000000000C003B00027
:102D200050A6880010002000D080880039003700AD
:102D3000E19D8000E03B2100008040001E487800BB
:102D4000E09D80000000E800E09D8800212B21002C
:102D5000C03B2100741802000000000080007800D1
:102D60000E80E800010878000E80E800100078006E
:102D70000000E0000E003A00804C21001040780076
:102D8000804078000114A100804C210001487800A7
:102D9000804C210010407800804078000104A000A1
:102DA000804C2100014878001A30EF0019003700EC
:102DB0000E80E80010007800E10F5000140036008B
:102DC000804C210010407800804078000114A10060
:102DD000804C210001487800804C21001040780090
:102DE000804078000104A100804C21000148780057
:102DF0001A30EF0007003700000000000500370020
:102E00000000000003003700000000000100370050
:102E1000000000000080FA00000006000801FA002F
:102E2000611020008E804000800878000040EB0098
:102E3000004F7800601020000E0040001000780065
:102E40000080E800100078008000E800640047007F
:102E500001087800A1C5B30066004700014878006A
:102E6000601020000E0040001000780090407800B4
:102E700067004700014878006400470010007800B0
:102E80004800DE0080407800680047000148780074
:102E90006400470010007800804078006900470017
:102EA00001487800670047009040780068004700BC
:102EB0001040780080C04000690047001040780052
:102EC00000CF40008000EB000E80E8000108780091
:102ED0001C0037000E80E8001000780064004000FD
:102EE000611020008E804000110178008E80E80083
:102EF00091007800E480400081004100914078001A
:102F00006600400000004700014878006010200083
:102F10000E004000900078000E80E800100078005D
:102F20006400400000804000104078001E4F4000C8
:102F30000E80E800100078008000E8000E80E800B5
:102F400001087800601020000E004000100078009A
:102F50000080E800900078000E80E8001000780003
:102F6000808F5000DBFF3E001ECFEA000E80E8009D
:102F70001000780064004000660040000000470038
:102F80001E4878000060FE008000EB000E80E80024
:102F9000010878000C0037000E80E800100078006F
:102FA000660040000000470010407800EE1D02005F
:102FB000000000000E80E800100078008000E800AB
:102FC0000E80E800010878006400470010007800D7
:102FD000640040008E80E80091007800810F50006E
:102FE000EDFF3E00601020000E00400090007800D1
:102FF0000040EB0080487800601020000E00400088
:10300000100078008000EB000080E80001087800E4
:10301000601020000E0040001000780064004000A6
:10302000621020008000EB00120602000000000089
:103030000080FA00000006000400FA008E80E8001C
:103040008008780010002000000F7800804C2100DC
:10305000104078000080FB006100600000407800B4
:103060000004E0001B003200804C2100104078007A
:10307000804078000104A100804C210001487800C4
:103080000000EB00000F7800202B2100104078009A
:103090008E80E8009100780080487800A19580003B
:1030A0000E80E800100078000080E8000108780039
:1030B000A19580000E80E8001000780064004000B8
:1030C00001017800612B21000406020000000000CD
:1030D0000200370010002000000F78001E0078006A
:1030E0000080FA00000006000C00FA0068014700AA
:1030F000000978006A004700010878000000EB0032
:10310000000F78008000EB000E80E80001087800D6
:103110008000EB0064004700010878008040EB006D
:1031200066004700014878006800470010007800FA
:1031300010007800E20F500003003E001100200054
:103140006400470001087800640047001000780020
:103150000000E00064003A006800470010007800BA
:103160000080E80010407800EA00470091007800F5
:103170008048780068004700100078006300400035
:10318000104078000080FB00C800DD006A004700A6
:10319000100078000080E800010878006A0047000D
:1031A000100078000080E800900078006800470078
:1031B0001000780064004000104078000080FB00A0
:1031C000810070006A004700100078000080E8006D
:1031D000010878006A004700100078000080E800CD
:1031E0009000780060102000808F500004003600AE
:1031F0005100200064004700010878003A003700C1
:103200000000EB00000F7800010037001E0FE800FF
:103210001E007800E50F50000A003E006A004700DB
:1032200010007800904078001E007800E601B90098
:10323000C04C2100000041001040780080CF5000B9
:10324000F2FF3A006A0047001000780090407800D2
:103250001E007800E601B900C04C210000004100CA
:103260001040780080CF50001C003A006A004700F0
:10327000100078000080E800100178001E0078003F
:10328000E600B9008080E800C04C210000804000CA
:1032900010007800800F51000C0039006A004700D0
:1032A000100078000080E800100178001E0078000F
:1032B000E600B900E4004000C04C2100008040005E
:1032C00010007800800F51000700360051002000E8
:1032D0006400470001087800030037006100200007
:1032E000640047000108780064004700100078007F
:1032F0000000E00058003A00680047001000780025
:10330000900078006A004700100078000080E80014
:103310001000780063004000808F50003D003A00AC
:103320008000EB000E80E800010878000000EB0050
:10333000000F78001F0037001E007800E20F5000D9
:103340001100360068004700900078001E80E800F9
:1033500000804000904078006A004700100178002B
:103360000E80E8001000780000004100640040007A
:10337000014878000E80E800100078008000E80026
:103380000E80E8000108780068004700900078008F
:103390001E80E8000080400010407800E6004700F2
:1033A0009140780080C040006600470001487800E6
:1033B0001E0FE8006A004700100078000080E80057
:1033C00010007800630040009E0F5000DAFF3E00BE
:1033D0006600470010407800E14F400003003200D3
:1033E0004100200064004700010878006A0047009F
:1033F000100078000080E800100078008000E900EC
:103400006A004700100078000080E800010878009A
:103410001100370068004700100078009000780025
:103420006A004700100078000080E8001000780073
:1034300063004000808F50000400360031002000FF
:1034400064004700010878000300370011002000E5
:10345000640047000108780064004700100078000D
:10346000E10F5000180036006A0047001000780095
:103470009040780000C9B30000C07000EA00470027
:1034800091007800804878006400470010007800C0
:10349000804078006A004700100078006400400017
:1034A000014878006A0047001000780011002000F1
:1034B0000080E800010878006A00470010007800EA
:1034C0000E170200000000006400470010007800A2
:1034D0000080FA00000006000000FE0002512100FA
:1034E0000019780001097800000006000000FE00C5
:1034F0000000EB008000EB00F8FF07002E27EF0034
:10350000000006000000FE000000FE00801F7800A2
:10351000811F7800821F780001512100124680002F
:10352000C3E8A900310078007039880011007800E4
:103530007039880029E7A8000000000000000000A2
:1035400029E7AF00FEFF370002F0A700C3E8A8009C
:103550004F017800CF0078004F007800000006008F
:103560000000FE00A2028000A10288009080BA0044
:103570001000BA00A2028800000006000000FE0051
:10358000A2028000A10288001000BA00A2028800F6
:10359000000006000000FE00F23F20000001610074
:1035A00008003A003200240042398800503988006F
:1035B00061398800861A0200000000001000200017
:1035C00029A7AF0000002000000006000000FE0058
:1035D00029E7AF00FEFF37000000A7001300370007
:1035E0000010A700110037006139880050398800A9
:1035F0001000240040398800A0028000A10F2000A4
:10360000A1028800010020008208BB008398BB0053
:103610008408BB008598BB00861A020000000000E9
:10362000A00288001000200029A7AF0000002000A1
:10363000000006000000FE0029E7AF00FEFF370093
:103640000000A700140037000010A7001200370088
:103650006139880050398800A102800010002400E0
:1036600040398800A00F2000A00288000000200040
:103670000208BB00F20F20000298BB000308BB0049
:103680000298BB00861A020000000000A102880018
:103690001000200029A7AF00000020000000060055
:1036A0000000FE0029E7AF00FEFF3700F30720000F
:1036B0008081610009003A00503988006139880032
:1036C000200024004039880082398800861A0200D0
:1036D000000000001000200029A7AF00000020001B
:1036E000000006000000FE0029E7AF00FEFF3700E3
:1036F000F30720008081610015003A0050398800EE
:10370000613988001000240040398800A00F200093
:10371000A00288000000200001042000F40F200017
:103720003208BB000498BB003208BB000490BB0009
:10373000861A0200000000002AA7EC002AA7EC006D
:103740002100B100F6FF3A001000200029A7AF00C9
:103750000000200000000600F23F20000000610091
:103760000000060002C02F0000006100F2FF2F00E1
:1037700081006100000006000000FA00003A8000AD
:103780000080FA00000006000200FA00FAFF0700BD
:10379000000F78001E007800240007000004E000FD
:1037A00002003200000028007D0007001E007800A3
:1037B0002C0007000004E00002003200000024009A
:1037C000770007001E007800360007000004E000C4
:1037D0000200320000202000710007001E00780067
:1037E000400007000004E000020032000008200052
:1037F0006B0007001E0078004A0007000004E0008C
:103800000200320000042000650007001E0078005E
:10381000540007000004E000020032000001200014
:103820005F0007000080FA00000006000400FA00B4
:103830008E80E800800878000040EB00004F7800A0
:103840000E80E800100078000000E00002003D005B
:1038500010C0B300004F78001E4078000080FA00CE
:10386000000006000400FA008E80E800800878005E
:103870000040EB00004F78000E80E80090007800D8
:1038800000002400008060000000E0000200320020
:1038900010C0B300004F78001E4078000080FA008E
:1038A000000006000400FA008E80E800800878001E
:1038B0000040EB00004F78000E80E8009000780098
:1038C00000202000008060000000E00002003200C4
:1038D00010C0B300004F78001E4078000080FA004E
:1038E000000006000400FA008E80E80080087800DE
:1038F0000040EB00004F78000E80E8009000780058
:1039000000082000008060000000E000020032009B
:1039100010C0B300004F78001E4078000080FA000D
:10392000000006000400FA008E80E800800878009D
:103930000040EB00004F78000E80E8009000780017
:1039400000042000008060000000E000020032005F
:1039500010C0B300004F78001E4078000080FA00CD
:10396000000006000400FA008E80E800800878005D
:103970000040EB00004F78000E80E8001000780057
:10398000700060000000E0000200320010C0B300D0
:10399000004F78001E4078000080FA00000006000A
:1039A0000200FA00000F78001E80EA00013A800051
:1039B00001006000003A88000080FA000000060064
:1039C0000000FA004027EF000080FA000000060027
:1039D0000000FA0000202000207088000010200065
:1039E000A0708800800020002071880070182000DE
:1039F00000708800F0EF2F0080708800703B20007E
:103A0000007188000C2EEF001C2EEF002C2EEF0012
:103A10000A2EEF001A2EEF002A2EEF00062EEF00DE
:103A2000162EEF00262EEF00A000200070708800F8
:103A300030202000F0708800700320007071880032
:103A4000113A8000F00B200000816000600420002B
:103A50007105200023742000804978008149780096
:103A600082497800A136800000F82F008080600035
:103A70000003200001007000A0368800313680006D
:103A800000F82F00808060007003200001007000AB
:103A90003036880071348000F00F2C008080600088
:103AA00000F0200001007000703488002136800092
:103AB00000F82F008080600070022000010070007C
:103AC000203688000134800000FC2F0080806000D8
:103AD00010032000010070000034880031348000A1
:103AE000F00F2C008080600000302000010070008A
:103AF000303488001134800000FC2F00008060000A
:103B0000F000B30010348800A1368000F00F2800C8
:103B1000808060000080210001007000A0368800D5
:103B20003134800000FC2F00008060000000A00005
:103B30003034880051348000F00F2C008080600009
:103B400000E020000100700050348800103A80002E
:103B5000000178000260A0006004200071052000D0
:103B600023742000804978008149780082497800D8
:103B70000080FA00000006000000FA00800020002B
:103B8000001188002222EF0040042000401188002C
:103B900021E2A8002342A8000080FA0000000600ED
:103BA0000000FA00000000001011800061006000B9
:103BB0000000E000FCFF3200101180006200600095
:103BC0000000E000010032002222A9003011800034
:103BD000004078000080FA00000006000200FA00B1
:103BE000004F78000000000011118000002020002C
:103BF000008060000000E000FBFF3A001E80FB0038
:103C0000201188000080FA00000006000000FA0081
:103C10001011800000407800614060000080FB00CF
:103C200000F0A7000000EA000000EA004F00DE00FC
:103C3000004078000080FA00000006000000FA0052
:103C40001111800000202000008060000000E000D2
:103C500007003A0011118000004020000080600041
:103C60000000E000020032001000200001003700D8
:103C70000000EB00004078000080FA000000060021
:103C80000000FA00101180004800DE006140600072
:103C90000080FB0000F0A7000000EA000000EA003E
:103CA0004F00DE00004078000080FA0000000600AF
:103CB0000000FA00101180000080FA0000000600E9
:103CC0000000FA0021E2A8002342A8000080FA00C8
:103CD000000006000000FA0021E2A9002342A9002A
:103CE0000080FA00000006000000FA000021EF004A
:103CF000F0F9200010088800000128002008880042
:103D00001670EF000080FA00000006000000FA00C4
:103D100000408000680060000000E0000600320003
:103D2000C08080000000E800C080880010C0B300A0
:103D300016F0B7000068A9000080FA000000060035
:103D40000200FA00000F78009E0078001108880039
:103D50001670EF000080FA00000006000000FA0074
:103D6000100880000080FA00000006000200FA003F
:103D7000000F78009E007800010888001670EF00A0
:103D80000080FA00000006000000FA000008800031
:103D90000080FA00000006000000FA001670EF0034
:103DA00005E1A8000080FA00000006000000FA000B
:103DB00005E1A9000080FA00000006000200FA00F8
:103DC0006101210091407800014F78001E40780089
:103DD0000004E000010032001670EF001E40780081
:103DE0000080FA00000006000000FA00C080800099
:103DF0000080FA00000006000000FA001830EF0012
:103E00000080FA00000006000A00FA006601470080
:103E10000009780068004700014878006600470004
:103E2000100F780068004700104078008080FB0089
:103E30000E80E800010878001E00780090007800ED
:103E40000E80E80010007800808068006400470061
:103E5000010878001E00780010007800C800DE001D
:103E60006400470010017800F00F2000000061009E
:103E700000014000406E2800000041001000780062
:103E8000808068001E007800010878000080FA0039
:103E9000000006000C00FA00E601470080097800E7
:103EA00068004700010878006A00470002087800AF
:103EB0000000EB00000F78000E80E800E6004700ED
:103EC0001108780064004700E800470011087800F6
:103ED0000000EB00000F7800090037006400470085
:103EE000100078001E0040001040780080407800EC
:103EF0000E80E80010007800C3FF07001E0FE800E6
:103F00006A004700100078009E007800808F500003
:103F1000F2FF39000080FA0000000600B212000033
:103F20001A020000800000001A10000002000000C9
:103F300080000000CC14000024000000820000007B
:103F4000000002000002000001000100000100006A
:103F50000300020000020000040001000001000054
:103F6000050007000006010006000500000500002E
:103F700020100000920200008000000000100000ED
:103F80001600000080000000101500000400000072
:103F900082000000FFFFFF00FF000000F01400009F
:103FA00020000000800000001C1000000200000043
:103FB00082000000FFFF0000161000000400000057
:103FC000800000001E1000000200000080000000C1
:103FD000000000000000FA0020042300203A8800BE
:103FE0004827EF0000602900703A8800E0032000B5
:103FF000303A88006027EF006227EF006427EF0067
:104000006627EF006A27EF006C27EF0032002000E0
:1040100080072000A1092000337420008049780027
:104020008149780082497800120020006004200055
:1040300071052000237420008049780081497800B0
:104040008249780000000000103A800061006000A2
:104050000000E000FCFF3A0000000000113A800080
:1040600000022000008060000000E000FBFF320042
:104070000080FA00000006000200FA000000EB00D9
:10408000000F7800FA200200000000004221020028
:1040900000000000EE15020000000000CC1E02002F
:1040A000000000005C09020000000000861E020003
:1040B00000000000F61502000000000010090200D8
:1040C000000000001E007800E10F500009003200DF
:1040D000E10F500003003900E20F500009003200E8
:1040E0000C003700A009020000000000000F78005B
:1040F000080037001A0A020000000000000F7800D4
:10410000040037008A0A020000000000000F780057
:1041100000000000E5FF37000000FA00400E280014
:10412000001988004040200010198800F04121004B
:10413000201988002823EF002E23EF00A000200084
:10414000801988003223EF002623EF00E00A2200C6
:10415000050007000080FA00000006000000FA00D9
:104160000080FA00000006000200FA00000F78004C
:104170001E007800F08088000080FA000000060031
:104180000000FA0001408000000022000080600072
:104190000000E00006003200F08080000000E00037
:1041A00002003200F08080000000010001A8A90098
:1041B0000080FA00000006000200FA00000F7800FC
:1041C00021028000200F2000008060001E0070008F
:1041D000200288000080FA00000006000000FA00BB
:1041E000C3E8A90000000000000000000080FA0001
:1041F000000006000000FA00E81C020000000000B9
:104200008C21020000000000EA1F020000000000F4
:10421000BC1D0200000000008C2002000000000015
:10422000741E020000000000ECFF070000022000E6
:10423000E1FF07000080FA00000006000400FA0019
:104240008E80E80080087800F41E02000000000064
:104250008E80E80091007800010F400003003700D5
:10426000861E0200000000000060FE00F41E020036
:10427000000000009E0F5000F9FF39000080FA0096
:10428000000006000000FA0040A7A8000080FA0025
:10429000000006000000FA0040A7A9000080FA0014
:1042A000000006004F5121000EFF27000E0188007C
:1042B000012020000100E000020032000120200067
:1042C00091018800000020000000E00002003200A0
:1042D00000000200000000003C200200000000007E
:1042E0000040DA000000FE000200FA00000F780033
:1042F0009E007800E1808800FFFF37000000FA0090
:10430000004F2100800778008050210000018800C4
:104310000080FA00000006000000FA000080FA00A9
:044320000000060093
:02000004000AF0
:10AFE000CFFF0000FFFF000077FF00007AFF0000A6
:08AFF00078FF0000FFFFFF00E5
:00000001FF
