:080000000004040000000000F0
:100800000F5321000EFF2C000E0188000000000095
:10081000000020000000E000020032000001200083
:100820002002880014000700F60007000000E00026
:1008300003003A00E05A21000100200002003700C6
:100840000000200001002000810F70000100320034
:100850000F000700000020000000E000020032004E
:100860000000020000000000F4130200000000007D
:100870000040DA000000FE00200020000000E00040
:1008800002003200100020009001880000000600E5
:10089000A1028800800478000000EB001F003700F0
:1008A000E284440054A0B4009905BA00E2844400F4
:1008B00054A0B4009906BA00E284440054A0B400E5
:1008C0000006EB00476FDE00FD07B200AE018800B6
:1008D000636CE10003003A000AD801000000EB005D
:1008E0000E003700606CE10008003A00004DEB009C
:1008F0000A05E800020039003420EC000AF0A000EC
:100900008B05E900F9FF3E00040037006168E10053
:10091000010032000086EB000B00070019C7BA0087
:100920000E04E0001905BA0003003A000A00E000D6
:10093000DBFF3A0000000600FE07B200AE028800AE
:100940008A047800F5FF37000CD0A300E20F4D00B9
:100950001C003B0089027800354DBA000A05E8000A
:10096000020039003420EC000AF0A0008B05E900F9
:100970000F003200254DBA000A05E80002003900D8
:100980003420EC000AF0A0008B05E90008003200DA
:100990000C00E0000600320015CDBA000A05E800A0
:1009A000020039003420EC000AF0A0008B05E900B9
:1009B0008984E80054A0B4000B00E000E2FF3A0094
:1009C000000006009902BA00055D78008B05E90079
:1009D000F7FF3200C82ADE00055D78008B05E900CC
:1009E000F3FF32000C00E000F1FF320019DDBA0025
:1009F000EEFF3700E0160400000000003600F800AB
:100A0000809FBE00829FBE00849FBE00869FBE0066
:100A10000000FA00C028A9000000EB0050170200F7
:100A2000000000000080FA004F03BE004F02BE002D
:100A30004F01BE004F00BE003600F9000040060026
:100A40003600F800809FBE00829FBE00849FBE00DB
:100A5000869FBE000000FA005A1702000000000046
:100A6000C048A9001000200050170200000000003C
:100A70000080FA004F03BE004F02BE004F01BE00CF
:100A80004F00BE003600F900004006003600F800B6
:100A9000809FBE00829FBE00849FBE00869FBE00D6
:100AA0000000FA00C068A9002000200050170200D2
:100AB000000000000080FA004F03BE004F02BE009D
:100AC0004F01BE004F00BE003600F9000040060096
:100AD0003600F800809FBE00829FBE00849FBE004B
:100AE000869FBE000000FA00C088A90030002000E8
:100AF00050170200000000000080FA004F03BE0003
:100B00004F02BE004F01BE004F00BE003600F9008C
:100B1000004006003600F800809FBE00829FBE00A5
:100B2000849FBE00869FBE000000FA00C0A8A900F6
:100B30004000200050170200000000000080FA0072
:100B40004F03BE004F02BE004F01BE004F00BE006B
:100B50003600F900004006003600F800809FBE0015
:100B6000829FBE00849FBE00869FBE000000FA00E8
:100B7000C608A90070002000501702000000000005
:100B80000080FA004F03BE004F02BE004F01BE00BE
:100B90004F00BE003600F900004006003600F800A5
:100BA000809FBE00829FBE00849FBE00869FBE00C5
:100BB0000000FA0021468000000220000080600052
:100BC0000000E00004003200C4A8A900900020004A
:100BD00050170200000000002046800070006000F6
:100BE0000000E00004003200C488A900A00020003A
:100BF0005017020000000000FFFF37000040DA003D
:100C00000000FE00000005002600FA00410220005E
:100C10008E804000800878008000EB000E80E800A5
:100C2000010878008040EB0064004700014878002C
:100C3000400220000E004000100078009040780034
:100C400000C8B30000C04000410220008E80400078
:100C500091007800804878000040EB00004F780059
:100C60000D0037001E80FB000000E8009E80FB00A6
:100C7000420220000E01410012017800E480400091
:100C8000810041009140780064004000000047006E
:100C9000014878001E4FE8001E80FB004102200042
:100CA0008E804000910078008180E80091007800FB
:100CB000810F5000EBFF3900400220000E00400081
:100CC000100078000080E800100078008000E80044
:100CD000400220000E004000100078000080E80074
:100CE00001087800400220000E004000100078004B
:100CF0000080E80010017800400220000E00400053
:100D00001000780064004000E40047000C0E020070
:100D100000000000400220000E004000100078009B
:100D2000A20C0200000000000E80E8001000780015
:100D30000080FA00000006004A00FA00810420004A
:100D40008E804000800878000000EB00000F7800E3
:100D5000800420000E0040001000780090407800D1
:100D600000C8B30000C04000810420008E80400015
:100D700091007800804878001E007800804078005C
:100D80006800470001487800800420000E00400001
:100D90001000780064004000104078000080FB00E4
:100DA000E10F50002C003200E20F500041003200F1
:100DB0000000E0004A003A007C120200000000003F
:100DC0000E81E8000089BE000E80E80090009000CF
:100DD000100078004808DE00804078006900470075
:100DE000014878000E80E800900090001000780024
:100DF0004008DE00804078006A0047000148780023
:100E00000E80E80090009000100078004809DD0096
:100E10004800DE0000007100C808DE008040780055
:100E20006B004700014878000E80E8001000780051
:100E3000804078006C004700014878008004200062
:100E40000E00400010007800410020000080E80003
:100E500001087800250037002A1302000000000076
:100E600080007800660047000108780066004700AF
:100E7000100078004800DE008040780069004700DC
:100E80000148780066004700100078008040780034
:100E90006A00470001487800800420000E004000EE
:100EA00010007800210020000080E8000108780090
:100EB0000E003700680047000000E800BA12020088
:100EC00000000000800420000E00400010007800A8
:100ED000010420000080E8000108780003003700CA
:100EE00020002000000F7800000000001E007800A5
:100EF0000000E00018003A00800420000E004000CE
:100F0000100078000080E800100078008000E80001
:100F1000800420000E004000100078000080E800EF
:100F200001087800800420000E00400010007800C6
:100F30000080E80010017800800420000E004000CE
:100F40001000780064004000E80047000C0E02002A
:100F5000000000000D003700800420000E0040005B
:100F600010007800110020000080E80001087800DF
:100F70001E00780080407800800420000E004000B1
:100F800010007800640040000148780080042000D0
:100F90000E00400010007800A20C020000000000CB
:100FA0001E0078000080FA00000006000A00FA0027
:100FB000E8004700800878000000EB00000F780090
:100FC0006000B8000E81E8000089BE0011C0B300C7
:100FD000660047000148780068004700100078006C
:100FE0009040780000C8B30000C04000E80047000F
:100FF0009100780080487800680047001000780071
:10100000110020000080E800010878005005200051
:10101000A10A2000021002000000000017003700A3
:101020000E80E800900090001000780070014000F1
:10103000E08148004A18DD00C610DE008100700023
:101040004A10DD006010020000000000E6004700CA
:101050009140780080C06000660047000148780039
:101060000E80E800900090001000780061004000C1
:10107000E08048000E81E8000089BE000E80E80094
:101080001001780090019000F0082000010020007D
:10109000800F5100818F590004003E006600470018
:1010A00010407800E14F5000DDFF3200660047003D
:1010B00010407800E14F50000B003A000E80E8002D
:1010C000100178009001900000092000010020002C
:1010D000800F5100818F590003003A0010C0B30007
:1010E00004F0B7000200370070002000000F780005
:1010F0000C100200000000001E0078008040780004
:101100006800470010007800640040000148780043
:101110006800470010007800A20C020000000000E8
:101120001E0078000080FA00000006000400FA00AB
:101130008E80E800800878000000EB00000F780047
:10114000E12921000E80E800100078001B00070054
:10115000000F78001E0078000000E00005003A0053
:1011600004D0BF000004E00002003A00200020008C
:10117000000F78001E0078000080FA0000000600D2
:101180000200FA00000F78000000EB000080FA0077
:10119000000006000200FA00000F78000000EB00DB
:1011A0000080FA00000006000200FA00000F78003C
:1011B0000000EB000080FA00000006001600FA00B4
:1011C000889FBE008A9FBE008C9FBE006E014700B4
:1011D0000009780070004700010878000000EB006B
:1011E000000F78006000B800640147000089BE006D
:1011F0006000B800680147000089BE008000EB0075
:101200006C004700010878006E004700100078006D
:1012100067004000104078000080FB008000EB0079
:1012200070014700120178000089BE00700047007D
:101230001000780010037800900390006E004700C3
:101240001000780066004000104078000080FB002D
:101250004800DD008000EB0002F02F0003002000BA
:1012600000027800140F980001027800240F980003
:1012700002007800830078001E09900000006100E1
:101280002E0A90008100620081027800000278003E
:101290000400BE00000073008180730070014700ED
:1012A000120178000089BE0070004700100078002D
:1012B00010027800900290006E0047001000780045
:1012C00065004000104078000080FB004000DD0019
:1012D0006101B90000002000F10F20000203780036
:1012E000030178008001780081007800030063002A
:1012F0008100610081067800000678000C00BE00C5
:1013000000007200818072007001470012017800B5
:101310000089BE0070004700100078009000900027
:10132000100078008100D1000080D30070014700D8
:10133000120178000089BE006E004700100078009E
:101340000080E80010007800E60050000E80E80001
:101350000108780070004700100078006400400029
:101360008E80E800110878006E00470010007800B9
:101370000080E800100078000080E900EE004700DF
:101380009100780064004000008040001040780028
:101390008080FB0070004700100078006018B000EB
:1013A0000108780070004700100078006018B00055
:1013B000100178006E004700100078000080E800FF
:1013C0001000780063005000EE00470091007800A4
:1013D0006400400000804000104078000080FB0066
:1013E0004800DD00820070007000470010007800A7
:1013F0006018B00001087800700047001000780005
:1014000090009000100078000000780061006000FB
:101410008005EB00000578000A00BE00E00F5000D8
:10142000E08F580094003A007000470010007800E8
:101430001001780090019000F03F2400010020008E
:10144000800F5100818F590009003600700047005D
:10145000100078001001780090019000F03F250006
:1014600051002000800F5100818F59000700360085
:101470007000470010007800900090001000780085
:10148000E00F5000E08F58007B003A0070004700EA
:10149000100078001001780090019000F007200003
:1014A000010020000202780003017800800178002A
:1014B00081007800030062008100610081047800EF
:1014C000000478000800BE00680147000089BE00E3
:1014D0007000470010007800100178009001900023
:1014E0006800470090009000100078000000510054
:1014F00081805900640147000089BE0068004700F0
:1015000090009000100078008100D1000080D3008E
:10151000680147000089BE00700047001000780095
:1015200064004000100078006101B80068004700C6
:101530009000900010007800020140008381480074
:101540000010200001002000800F5100818F590001
:1015500046003E008000EB000E80E80001087800A5
:101560000D00370070004700900078000E80E80002
:1015700010007800008040006600400080C0EB0052
:10158000014878000E80E800100078008000E80034
:101590000E80E800010878000E80E8001000780056
:1015A0006101B800680047009000900010007800CA
:1015B000800F5100818F5900EAFF39008000EB0055
:1015C0000E80E800010878001A0037000E80E8005D
:1015D000100078006101B80068004700900090009A
:1015E0001000780002004000838048000E81E8006F
:1015F0001201780063014100EE0147009301780079
:10160000640141000281410012417800F00147006D
:101610009301780000804100660040000248780095
:101620000E80E800100078008000E8000E80E800DE
:101630000108780070004700100078006400400046
:10164000900078000E80E80010007800808F500035
:10165000DEFF3E0070004700900078006400470005
:10166000B0187800A0107800050037002000200096
:10167000000F78000200370080002000000F780083
:101680001E0078000000E00019003A00100221005E
:1016900018160200000000007000470010007800DB
:1016A00064004000900078006E0047001000780051
:1016B000670040002E160200000000008000780045
:1016C0006C004700010878007000470010007800A7
:1016D0006018B000900078006C004700100078009F
:1016E000808F50000200320090002000000F780030
:1016F0001E0078004F06BE004F05BE004F04BE001E
:101700000080FA00000006000000FA000630EF003A
:101710000080FA00000006000400FA00A029210061
:10172000104078000080FB000000D10000407800ED
:101730000080FB0061006000004078000004E000D1
:10174000120032002015020000000000E194800029
:10175000810F50000D003600A029210010407800B4
:101760000080FB00610060000000E00007003A001C
:101770000630EF00A029210010407800804078005A
:101780000114A100A0292100014878001011800057
:10179000610060000000E00068003200101180006D
:1017A000620060000000E000010032002222A90077
:1017B00030118000004F7800308080000000E00091
:1017C00003003200E10F5000230032005B003700BD
:1017D00050CAB3009E40780080CF500050003A00BD
:1017E000A0292100104078000080FB00610060000B
:1017F0000000E0004C003A00A029210010407800D1
:101800000080FB000000D100004078000080FB0059
:10181000610060000000E00045003A00A0292100BE
:1018200010407800804078000114A000A029210019
:10183000014878000000EB00708C88002015020041
:1018400000000000803EB000E094880010002000FE
:101850003080880039003700718C80000019210029
:10186000008040001E487800708C80000000E80076
:10187000708C880041082100E0182100400E020011
:1018800000000000800078000E80E8000108780069
:101890000E80E800100078000000E0000E003A0022
:1018A000A029210010407800804078000114A10098
:1018B000A029210001487800A029210010407800CB
:1018C000804078000104A000A02921000148780090
:1018D0000630EF00190037000E80E8001000780095
:1018E000E10F500014003600A029210010407800BC
:1018F000804078000114A100A0292100014878004F
:10190000A029210010407800804078000104A10047
:10191000A0292100014878000630EF0007003700B9
:101920000000000005003700000000000300370041
:101930000000000001003700000000000080FA00F5
:10194000000006006C00FA00A10620008E80400016
:10195000800878000040EB00004F7800A0062000CF
:101960000E004000100078000080E80010007800B1
:101970008000E8006400470001087800A1C5B300BA
:101980006600470001487800A00620000E004000D5
:101990001000780090407800670047000148780008
:1019A00064004700100078004800DE0080407800A6
:1019B0006800470001487800640047001000780084
:1019C00080407800690047000148780067004700C0
:1019D00090407800680047001040780080C04000C8
:1019E000690047001040780000CF40008000EB0005
:1019F0000E80E800010878001C0037000E80E80027
:101A00001000780064004000A10620008E80400095
:101A1000110178008E80E80091007800E480400099
:101A200081004100914078006600400000004700BE
:101A300001487800A00620000E00400090007800C9
:101A40000E80E80010007800640040000080400034
:101A5000104078001E4F40000E80E8001000780013
:101A60008000E8000E80E80001087800A006200051
:101A70000E004000100078000080E8009000780020
:101A80000E80E80010007800808F5000DBFF3E00E1
:101A90001ECFEA000E80E8001000780064004000CD
:101AA00066004000000047001E4878008000EB0000
:101AB0000E80E800010878000C0037000E80E80076
:101AC00010007800660040000000470010407800D9
:101AD0006E130200000000000E80E8001000780085
:101AE0008000E8000E80E8000108780064004700EC
:101AF00010007800640040008E80E80091007800BB
:101B0000810F5000EDFF3E000080FA00000006004B
:101B10000600FA00E400470080087800100020006A
:101B2000000F78008000EB000E80E80001087800CC
:101B3000A0292100104078000080FB0061006000B7
:101B4000004078000004E0002E003200A0292100AF
:101B500010407800804078000104A100A0292100F5
:101B6000014878000000EB00000F780040082100D9
:101B700010407800E4004700910078008048780029
:101B80003184800064004700100078000080E80085
:101B9000010878008000EB000E80E8000108780062
:101BA000120037000E80E80010007800E4004000CA
:101BB0004008210000804000904078006400470009
:101BC000100178000E80E80010007800000041004D
:101BD00064004000014878000E80E80010007800A2
:101BE0008000E8000E80E800010878003184800061
:101BF0000E80E80010007800808F5000E9FF3E0062
:101C00000200370010002000000F78001E0078004E
:101C10000080FA00000006000800FA008E81E8004B
:101C200080097800640047000108780066004700DA
:101C3000020878000000EB00000F78000900370070
:101C40000E80E800100078001E004000E40047000D
:101C5000910078009E804000914078000148780013
:101C60001E0FE80066004700100078009E00780014
:101C7000808F5000F2FF39000080FA00000006005B
:101C80000C00FA0068014700000978006A0047006C
:101C9000010878000000EB00000F78008000EB00E6
:101CA0000E80E800010878008000EB006400470027
:101CB000010878008040EB0066004700014878008A
:101CC000680047001000780010007800E20F500014
:101CD00003003E0011002000640047000108780066
:101CE00064004700100078000000E00064003A0043
:101CF00068004700100078000080E800104078007D
:101D0000EA004700910078008048780068004700AA
:101D10001000780063004000104078000080FB0055
:101D2000C800DD006A004700100078000080E8006D
:101D3000010878006A004700100078000080E80081
:101D400090007800680047001000780064004000B0
:101D5000104078000080FB00810070006A0047009E
:101D6000100078000080E800010878006A00470051
:101D7000100078000080E8009000780060102000DB
:101D8000808F5000040036004100200064004700AE
:101D9000010878003A0037000000EB00000F7800DF
:101DA000010037001E0FE8001E007800E70F50000A
:101DB0000A003E006A00470010007800904078005A
:101DC0001E007800E601B900C000210000004100BB
:101DD0001040780080CF5000F2FF3A006A004700C0
:101DE00010007800904078001E007800E601B900ED
:101DF000C0002100000041001040780080CF50005A
:101E00001C003A006A004700100078000080E800DB
:101E1000100178001E007800E600B9008080E8001C
:101E2000C00021000080400010007800800F5100A9
:101E30000C0039006A004700100078000080E800BC
:101E4000100178001E007800E600B900E4004000B0
:101E5000C00021000080400010007800800F510079
:101E600007003600410020006400470001087800A8
:101E7000030037005100200064004700010878008B
:101E800064004700100078000000E00058003A00AD
:101E90006800470010007800900078006A00470052
:101EA000100078000080E800100078006300400017
:101EB000808F50003D003A008000EB000E80E8006B
:101EC000010878000000EB00000F78001F003700C9
:101ED0001E007800E20F5000110036006800470035
:101EE000900078001E80E80000804000904078005C
:101EF0006A004700100178000E80E80010007800AA
:101F00000000410064004000014878000E80E800B5
:101F1000100078008000E8000E80E80001087800DA
:101F200068004700900078001E80E80000804000B4
:101F300010407800E60047009140780080C04000E3
:101F400066004700014878001E0FE8006A0047005D
:101F5000100078000080E800100078006300400066
:101F60009E0F5000DAFF3E006600470010407800E8
:101F7000E14F4000030032003100200064004700C0
:101F8000010878006A004700100078000080E8002F
:101F9000100078008000E9006A0047001000780017
:101FA0000080E80001087800110037006800470051
:101FB00010007800900078006A0047001000780058
:101FC0000080E8001000780063004000808F50001F
:101FD000040036002100200064004700010878005A
:101FE000030037001100200064004700010878005A
:101FF00064004700100078000080FA00000006002E
:102000000000FE00C20521000019780001097800D7
:10201000000006000000FE000000EB008000EB0066
:10202000F8FF07002E27EF00000006000000FE006A
:102030000000FE00801F7800811F7800821F78005A
:10204000C105210012468000C3E8A90031007800D4
:1020500070398800110078007039880029E7A800DD
:10206000000000000000000029E7AF00FEFF37007D
:1020700002F0A700C3E8A8004F017800CF00780065
:102080004F007800000006000000FE00A202800061
:10209000A10288009080BA001000BA00A202880055
:1020A000000006000000FE00A2028000A1028800DD
:1020B0001000BA00A2028800000006000000FE0026
:1020C000F23F20000001610008003A0032002400C5
:1020D0004239880050398800613988001A1002009E
:1020E000000000001000200029A7AF000000200021
:1020F000000006000000FE0029E7AF00FEFF3700E9
:102100000000A700130037000010A70011003700DF
:102110006139880050398800100024004039880057
:10212000A0028000A10F2000A10288000100200071
:102130008208BB008398BB008408BB008598BB0065
:102140001A10020000000000A00288001000200009
:1021500029A7AF0000002000000006000000FE00DC
:1021600029E7AF00FEFF37000000A700140037008A
:102170000010A7001200370061398800503988002C
:10218000A10280001000240040398800A00F200028
:10219000A0028800000020000208BB00F20F20000F
:1021A0000298BB000308BB000298BB001A10020093
:1021B00000000000A10288001000200029A7AF0045
:1021C00000002000000006000000FE0029E7AF002C
:1021D000FEFF3700F30720008081610009003A000C
:1021E0005039880061398800200024004039880077
:1021F000823988001A100200000000001000200040
:1022000029A7AF0000002000000006000000FE002B
:1022100029E7AF00FEFF3700F3072000808161004F
:1022200015003A00503988006139880010002400F8
:1022300040398800A00F2000A00288000000200084
:1022400001042000F40F20003208BB000498BB00FA
:102250003208BB000490BB001A100200000000000E
:102260002AA7EC002AA7EC002100B100F6FF3A00F3
:102270001000200029A7AF00000020000000060089
:10228000F23F2000000061000000060002C02F00A5
:1022900000006100F2FF2F008100610000000600D5
:1022A0000000FA00003A80000080FA0000000600FA
:1022B0000200FA00FAFF0700000F78001E00780005
:1022C000240007000004E0000200320000002800A3
:1022D0007D0007001E0078002C0007000004E000CD
:1022E0000200320000002400770007001E00780082
:1022F000360007000004E000020032000020200049
:10230000710007001E007800400007000004E00094
:1023100002003200000820006B0007001E00780059
:102320004A0007000004E000020032000004200020
:10233000650007001E007800540007000004E0005C
:1023400002003200000120005F0007000080FA0058
:10235000000006000400FA008E80E8008008780083
:102360000040EB00004F78000E80E800100078007D
:102370000000E00002003D0010C0B300004F7800F4
:102380001E4078000080FA00000006000400FA00F9
:102390008E80E800800878000040EB00004F780055
:1023A0000E80E800900078000000240000806000AB
:1023B0000000E0000200320010C0B300004F7800BF
:1023C0001E4078000080FA00000006000400FA00B9
:1023D0008E80E800800878000040EB00004F780015
:1023E0000E80E8009000780000202000008060004F
:1023F0000000E0000200320010C0B300004F78007F
:102400001E4078000080FA00000006000400FA0078
:102410008E80E800800878000040EB00004F7800D4
:102420000E80E80090007800000820000080600026
:102430000000E0000200320010C0B300004F78003E
:102440001E4078000080FA00000006000400FA0038
:102450008E80E800800878000040EB00004F780094
:102460000E80E800900078000004200000806000EA
:102470000000E0000200320010C0B300004F7800FE
:102480001E4078000080FA00000006000400FA00F8
:102490008E80E800800878000040EB00004F780054
:1024A0000E80E80010007800700060000000E0007E
:1024B0000200320010C0B300004F78001E407800C8
:1024C0000080FA00000006000200FA00000F780009
:1024D0001E80EA00013A800001006000003A880096
:1024E0000080FA00000006000000FA004027EF001C
:1024F0000080FA00000006000600FA000000240038
:10250000010020005410020000000000000F7800BD
:102510001E0078008000EB000E81E8000089BE00FC
:1025200020002400010020005410020000000000E0
:10253000000F78001E0078008000EB00C000DD0076
:10254000000020000E81E800920190001201780046
:1025500000007100818071000E81E8000089BE00DA
:102560000E80E80090009000100078000080FA00D3
:10257000000006000600FA00E4004700800878002A
:102580008040EB000E00E800014878000040EB00BE
:10259000004F78002A0037009E80FB0000042200D4
:1025A0000080400000004000CF80DE005410020098
:1025B00000000000800078000E80E800010878002C
:1025C0000E00E800104078000080FB00E4004700A7
:1025D00091007800008040008E80E8009100780033
:1025E00081407800014878000E00E8001040780033
:1025F0008040E8000E00E800014878000E00E80086
:10260000104078000080FB00E40047009100780053
:10261000008040008E80E80091007800C808DE004D
:1026200081407800014878000E00E80010407800F2
:102630008040E8000E00E800014878001E4FE800E6
:102640001E407800FF4F5000D3FF36000080FA0094
:10265000000006000200FA00000C24000100200027
:102660005410020000000000000F78001E007800E7
:102670000080FA00000006000000FA008000200040
:10268000001188002222EF00400420004011880041
:1026900021E2A8002342A8000080FA000000060002
:1026A0000000FA00000000001011800061006000CE
:1026B0000000E000FCFF32001011800062006000AA
:1026C0000000E000010032002222A9003011800049
:1026D000004078000080FA00000006000200FA00C6
:1026E000004F780000000000111180000020200041
:1026F000008060000000E000FBFF3A001E80FB004D
:10270000201188000080FA00000006000000FA0096
:102710001011800000407800614060000080FB00E4
:1027200000F0A7000000EA000000EA004F00DE0011
:10273000004078000080FA00000006000000FA0067
:102740001111800000202000008060000000E000E7
:1027500007003A0011118000004020000080600056
:102760000000E000020032001000200001003700ED
:102770000000EB00004078000080FA000000060036
:102780000000FA00101180004800DE006140600087
:102790000080FB0000F0A7000000EA000000EA0053
:1027A0004F00DE00004078000080FA0000000600C4
:1027B0000000FA00101180000080FA0000000600FE
:1027C0000000FA0021E2A8002342A8000080FA00DD
:1027D000000006000000FA0021E2A9002342A9003F
:1027E0000080FA00000006000600FA007C120200D9
:1027F00000000000008FBE0002848000138480006F
:10280000D0EE2F00E10D2C00800F5100818F590078
:1028100009003200403D2C00211B2A001E017800D7
:102820009E019000800F5100818F590002003A00F4
:1028300000440400000000002C170200000000000B
:10284000054EA800840B020000000000F8140200EE
:10285000000000000100370000000000B214020078
:10286000000000008C0B020000000000604221000C
:10287000880D0200000000000000E000F6FF3A00B2
:1028800060422100104078000080FB00E50F5000FE
:1028900025003200E50F500007003C00E30F500018
:1028A00013003200E30F500018003C00E20F50000C
:1028B0000800320020003700EA0F50001C003200F0
:1028C000EB0F50001B003200E60F500017003200E3
:1028D00019003700604221000406020000000000D9
:1028E000800078006400470001087800130037007A
:1028F000604221009C060200000000008000780079
:1029000064004700010878000C0037006042210095
:10291000D607020000000000800078006400470035
:102920000108780005003700040037000300370075
:10293000020037000100370000000000C7FF370029
:102940000000FA000021EF00F0F9200010088800D4
:1029500000012800200888000070EF000080FA00C5
:10296000000006000000FA000040800068006000DF
:102970000000E00006003200108080000000E80047
:102980001080880010C0B30000F0B7000068A900F4
:102990000080FA00000006000200FA00000F780034
:1029A0009E007800110888000070EF000080FA0097
:1029B000000006000000FA00100880000080FA0005
:1029C000000006000200FA00000F78009E00780068
:1029D000010888000070EF000080FA000000060087
:1029E0000000FA00000880000080FA0000000600E5
:1029F0000000FA000070EF0005E1A8000080FA0076
:102A0000000006000000FA0005E1A9000080FA00BD
:102A1000000006000200FA00010021009140780049
:102A2000014F78001E4078000004E00001003200F1
:102A30000070EF001E4078000080FA0000000600E1
:102A40000000FA00108080000080FA0000000600FC
:102A50000000FA000230EF000080FA0000000600DB
:102A60000000FA00042EEF0000102000A070880083
:102A7000242EEF007038200000708800F0EF2F0047
:102A800080708800F03B2000007188000C2EEF0061
:102A90001C2EEF002C2EEF000A2EEF001A2EEF0056
:102AA0002A2EEF00062EEF00162EEF00262EEF0046
:102AB000A02020007070880030202000F070880076
:102AC000F003200070718800113A8000F00B2000A4
:102AD0000081600060042000710520002374200044
:102AE000804978008149780082497800013480006B
:102AF00000FC2F00808060001003200001007000A7
:102B0000003488003134800000FC2F000080600019
:102B10000000A000303488002136800000F82F002B
:102B20008080600070022000010070002036880064
:102B3000103A8000000178000260A00060042000CC
:102B400071052000237420008049780081497800B5
:102B5000824978000080FA00000006009E12000002
:102B60008801000080000000041000000200000046
:102B700080000000261400000A0100008000000010
:102B8000841000001A0200008000000006100000FF
:102B900002000000800000000C1000003000000067
:102BA000820000000100010000010000020002009C
:102BB00000410000030002000002000004000100C8
:102BC00000010000050007000006010006000100EA
:102BD000000100000A000200000200000B000200D9
:102BE000000200005C1000000400000082000000F1
:102BF000FFFFFF00FF0000003C100000200000006D
:102C000080000000081000000200000082000000A8
:102C1000FFFF000000100000040000008000000022
:102C20000A10000002000000800000000000000008
:102C30000200FA00000F78008000210000328800B6
:102C4000F0702000103288009E0078002132880049
:102C50004626EF000080FA00000006000600FA0099
:102C60000E81E80000097800640047000108780040
:102C70004086A8000000EB00000F78000D00370030
:102C80000E80E800100078001E0040001040780020
:102C90000080FB004032880000000000013280000C
:102CA00000082000008060000000E000FBFF3A0008
:102CB0001E0FE80064004700100078009E007800B6
:102CC000808F5000EEFF39004086A9000000EB0025
:102CD0000080FA00000006000000FA002004230033
:102CE000203A88004827EF0000602900703A8800E9
:102CF000E0032000303A88006027EF006227EF00F1
:102D00006427EF006627EF006A27EF006C27EF00CB
:102D10003200200080072000A10920003374200029
:102D200080497800814978008249780012002000AB
:102D30006004200071052000237420008049780081
:102D4000814978008249780000000000103A800034
:102D5000610060000000E000FCFF3A00000000009D
:102D6000113A800000022000008060000000E000B6
:102D7000FBFF32000080FA00000006000000FA00AD
:102D8000400E2800001988004040200010198800DB
:102D9000F0412100201988002823EF002E23EF00A6
:102DA000A0002000801988003223EF002623EF00C6
:102DB000006E2100050007000080FA0000000600F8
:102DC0000000FA000080FA00000006000200FA008D
:102DD000000F78001E007800508088000080FA0004
:102DE000000006000000FA00014080000000220000
:102DF000008060000000E00006003200508080008B
:102E00000000E0000200320050808000000001005D
:102E100001A8A9000080FA00000006000200FA00E4
:102E2000000F780021028000200F20000080600049
:102E30001E007000200288000080FA0000000600DA
:102E40000000FA00C3E8A800000000000000000035
:102E50000080FA00000006000000FA0030150200B1
:102E60000000000068170200000000006C1602005D
:102E7000000000003C13020000000000BE1602002B
:102E800000000000A014020000000000ECFF07009A
:102E900000022000E1FF07000080FA0000000600A9
:102EA0000200FA00000F78009E0078004180880040
:102EB000FFFF37000000FA00C00321008007780000
:102EC00040052100000188000080FA000000060093
:0C2ED0000000FA000080FA00000006007C
:08800000DDCC0000BBAA00006A
:10810000436500006369000020650000737400008F
:10811000207500006E20000074650000737400007C
:10812000000000000000000000000000000000004F
:10813000000000000000000000000000000000003F
:10814000000000000000000000000000000000002F
:10815000000000000000000000000000000000001F
:10816000000000000000000000000000000000000F
:1081700000000000000000000000000000000000FF
:0481800001020000F8
:02000004000AF0
:10AFE000CFFF0000FFFF000077FF00007AFF0000A6
:08AFF00078FF0000FFFFFF00E5
:00000001FF
